{
  "contractName": "Gamble",
  "abi": [
    {
      "inputs": [
        {
          "internalType": "address",
          "name": "_linkTokenAddress",
          "type": "address"
        },
        {
          "internalType": "bytes32",
          "name": "_keyHash",
          "type": "bytes32"
        },
        {
          "internalType": "address",
          "name": "_vrfCoordinatorAddress",
          "type": "address"
        },
        {
          "internalType": "uint256",
          "name": "_fee",
          "type": "uint256"
        }
      ],
      "stateMutability": "nonpayable",
      "type": "constructor"
    },
    {
      "anonymous": false,
      "inputs": [
        {
          "indexed": false,
          "internalType": "address",
          "name": "bettor",
          "type": "address"
        },
        {
          "indexed": false,
          "internalType": "enum Gamble.BetTypes",
          "name": "bet",
          "type": "uint8"
        },
        {
          "indexed": false,
          "internalType": "uint256",
          "name": "amount",
          "type": "uint256"
        }
      ],
      "name": "BetPlaced",
      "type": "event"
    },
    {
      "anonymous": false,
      "inputs": [
        {
          "indexed": false,
          "internalType": "uint256",
          "name": "roll1",
          "type": "uint256"
        },
        {
          "indexed": false,
          "internalType": "uint256",
          "name": "roll2",
          "type": "uint256"
        }
      ],
      "name": "DiceResults",
      "type": "event"
    },
    {
      "anonymous": false,
      "inputs": [
        {
          "indexed": false,
          "internalType": "address",
          "name": "roller",
          "type": "address"
        },
        {
          "indexed": false,
          "internalType": "enum Gamble.BetTypes",
          "name": "bet",
          "type": "uint8"
        }
      ],
      "name": "Loser",
      "type": "event"
    },
    {
      "anonymous": false,
      "inputs": [
        {
          "indexed": true,
          "internalType": "address",
          "name": "previousOwner",
          "type": "address"
        },
        {
          "indexed": true,
          "internalType": "address",
          "name": "newOwner",
          "type": "address"
        }
      ],
      "name": "OwnershipTransferred",
      "type": "event"
    },
    {
      "anonymous": false,
      "inputs": [
        {
          "indexed": false,
          "internalType": "address",
          "name": "roller",
          "type": "address"
        },
        {
          "indexed": false,
          "internalType": "enum Gamble.BetTypes",
          "name": "bet",
          "type": "uint8"
        },
        {
          "indexed": false,
          "internalType": "uint256",
          "name": "point",
          "type": "uint256"
        }
      ],
      "name": "Point",
      "type": "event"
    },
    {
      "anonymous": false,
      "inputs": [
        {
          "indexed": false,
          "internalType": "bytes32",
          "name": "requestId",
          "type": "bytes32"
        }
      ],
      "name": "RequestedRandomness",
      "type": "event"
    },
    {
      "anonymous": false,
      "inputs": [
        {
          "indexed": false,
          "internalType": "address",
          "name": "bettor",
          "type": "address"
        },
        {
          "indexed": false,
          "internalType": "enum Gamble.BetTypes",
          "name": "bet",
          "type": "uint8"
        },
        {
          "indexed": false,
          "internalType": "uint256",
          "name": "rollValue",
          "type": "uint256"
        }
      ],
      "name": "RollEvaluated",
      "type": "event"
    },
    {
      "anonymous": false,
      "inputs": [
        {
          "indexed": false,
          "internalType": "address",
          "name": "roller",
          "type": "address"
        },
        {
          "indexed": false,
          "internalType": "enum Gamble.BetTypes",
          "name": "bet",
          "type": "uint8"
        },
        {
          "indexed": false,
          "internalType": "uint256",
          "name": "reward",
          "type": "uint256"
        }
      ],
      "name": "Winner",
      "type": "event"
    },
    {
      "stateMutability": "payable",
      "type": "fallback",
      "payable": true
    },
    {
      "inputs": [],
      "name": "current",
      "outputs": [
        {
          "internalType": "uint256",
          "name": "",
          "type": "uint256"
        }
      ],
      "stateMutability": "view",
      "type": "function",
      "constant": true
    },
    {
      "inputs": [
        {
          "internalType": "uint256",
          "name": "",
          "type": "uint256"
        }
      ],
      "name": "games",
      "outputs": [
        {
          "internalType": "enum Gamble.BetTypes",
          "name": "typeBet",
          "type": "uint8"
        },
        {
          "internalType": "uint256",
          "name": "betAmount",
          "type": "uint256"
        },
        {
          "internalType": "uint256",
          "name": "rollOne",
          "type": "uint256"
        },
        {
          "internalType": "uint256",
          "name": "rollTwo",
          "type": "uint256"
        },
        {
          "internalType": "uint256",
          "name": "point",
          "type": "uint256"
        },
        {
          "internalType": "uint256",
          "name": "rollCounter",
          "type": "uint256"
        },
        {
          "internalType": "bool",
          "name": "rollEvaluated",
          "type": "bool"
        },
        {
          "internalType": "bool",
          "name": "roundComplete",
          "type": "bool"
        }
      ],
      "stateMutability": "view",
      "type": "function",
      "constant": true
    },
    {
      "inputs": [],
      "name": "minBet",
      "outputs": [
        {
          "internalType": "uint256",
          "name": "",
          "type": "uint256"
        }
      ],
      "stateMutability": "view",
      "type": "function",
      "constant": true
    },
    {
      "inputs": [],
      "name": "owner",
      "outputs": [
        {
          "internalType": "address",
          "name": "",
          "type": "address"
        }
      ],
      "stateMutability": "view",
      "type": "function",
      "constant": true
    },
    {
      "inputs": [
        {
          "internalType": "bytes32",
          "name": "requestId",
          "type": "bytes32"
        },
        {
          "internalType": "uint256",
          "name": "randomness",
          "type": "uint256"
        }
      ],
      "name": "rawFulfillRandomness",
      "outputs": [],
      "stateMutability": "nonpayable",
      "type": "function"
    },
    {
      "inputs": [],
      "name": "renounceOwnership",
      "outputs": [],
      "stateMutability": "nonpayable",
      "type": "function"
    },
    {
      "inputs": [],
      "name": "rolledIndex",
      "outputs": [
        {
          "internalType": "uint256",
          "name": "",
          "type": "uint256"
        }
      ],
      "stateMutability": "view",
      "type": "function",
      "constant": true
    },
    {
      "inputs": [
        {
          "internalType": "address",
          "name": "newOwner",
          "type": "address"
        }
      ],
      "name": "transferOwnership",
      "outputs": [],
      "stateMutability": "nonpayable",
      "type": "function"
    },
    {
      "stateMutability": "payable",
      "type": "receive",
      "payable": true
    },
    {
      "inputs": [
        {
          "internalType": "enum Gamble.BetTypes",
          "name": "typeBet",
          "type": "uint8"
        }
      ],
      "name": "createGame",
      "outputs": [],
      "stateMutability": "payable",
      "type": "function",
      "payable": true
    },
    {
      "inputs": [],
      "name": "getRandomNumber",
      "outputs": [
        {
          "internalType": "bytes32",
          "name": "requestId",
          "type": "bytes32"
        }
      ],
      "stateMutability": "nonpayable",
      "type": "function"
    },
    {
      "inputs": [],
      "name": "evaluateRoll",
      "outputs": [],
      "stateMutability": "nonpayable",
      "type": "function"
    },
    {
      "inputs": [],
      "name": "quitGame",
      "outputs": [],
      "stateMutability": "nonpayable",
      "type": "function"
    },
    {
      "inputs": [],
      "name": "getChainlinkToken",
      "outputs": [
        {
          "internalType": "address",
          "name": "",
          "type": "address"
        }
      ],
      "stateMutability": "view",
      "type": "function",
      "constant": true
    },
    {
      "inputs": [],
      "name": "getCurrentBetType",
      "outputs": [
        {
          "internalType": "enum Gamble.BetTypes",
          "name": "",
          "type": "uint8"
        }
      ],
      "stateMutability": "view",
      "type": "function",
      "constant": true
    },
    {
      "inputs": [],
      "name": "isRollEvaluated",
      "outputs": [
        {
          "internalType": "bool",
          "name": "",
          "type": "bool"
        }
      ],
      "stateMutability": "view",
      "type": "function",
      "constant": true
    },
    {
      "inputs": [],
      "name": "isRoundOver",
      "outputs": [
        {
          "internalType": "bool",
          "name": "",
          "type": "bool"
        }
      ],
      "stateMutability": "view",
      "type": "function",
      "constant": true
    },
    {
      "inputs": [
        {
          "internalType": "uint256",
          "name": "dieNum",
          "type": "uint256"
        }
      ],
      "name": "getCurrentRollValues",
      "outputs": [
        {
          "internalType": "uint256",
          "name": "",
          "type": "uint256"
        }
      ],
      "stateMutability": "view",
      "type": "function",
      "constant": true
    }
  ],
  "bytecode": "0x60c06040526001600655600060075566038d7ea4c6800060085534801561002557600080fd5b50604051620027e7380380620027e78339818101604052608081101561004a57600080fd5b810190808051906020019092919080519060200190929190805190602001909291908051906020019092919050505081848173ffffffffffffffffffffffffffffffffffffffff1660a08173ffffffffffffffffffffffffffffffffffffffff1660601b815250508073ffffffffffffffffffffffffffffffffffffffff1660808173ffffffffffffffffffffffffffffffffffffffff1660601b81525050505060006100fb6101b960201b60201c565b905080600160006101000a81548173ffffffffffffffffffffffffffffffffffffffff021916908373ffffffffffffffffffffffffffffffffffffffff1602179055508073ffffffffffffffffffffffffffffffffffffffff16600073ffffffffffffffffffffffffffffffffffffffff167f8be0079c531659141344cd1fd0a4f28419497f9722a3daafe3b4186f6b6457e060405160405180910390a35060016002819055508260048190555080600581905550505050506101c1565b600033905090565b60805160601c60a05160601c6125f2620001f560003980611523528061228f525080610560528061225352506125f26000f3fe6080604052600436106101025760003560e01c8063820b63b2116100955780639fa6a6e3116100645780639fa6a6e3146103fe578063b4a6051214610429578063dbdff2c114610440578063e580f6ab1461046b578063f2fde38b1461049c57610109565b8063820b63b2146103085780638da5cb5b1461033757806394985ddd1461038e5780639619367d146103d357610109565b80635e611406116100d15780635e61140614610260578063602332a11461028b57806365462ed8146102da578063715018a6146102f157610109565b8063117a5b901461010b578063165d35e1146101a1578063305876a7146101f857806345ff606a1461022757610109565b3661010957005b005b34801561011757600080fd5b506101446004803603602081101561012e57600080fd5b81019080803590602001909291905050506104ed565b6040518089600181111561015457fe5b60ff16815260200188815260200187815260200186815260200185815260200184815260200183151515158152602001821515151581526020019850505050505050505060405180910390f35b3480156101ad57600080fd5b506101b661055c565b604051808273ffffffffffffffffffffffffffffffffffffffff1673ffffffffffffffffffffffffffffffffffffffff16815260200191505060405180910390f35b34801561020457600080fd5b5061020d610584565b604051808215151515815260200191505060405180910390f35b34801561023357600080fd5b5061023c610660565b6040518082600181111561024c57fe5b60ff16815260200191505060405180910390f35b34801561026c57600080fd5b5061027561073c565b6040518082815260200191505060405180910390f35b34801561029757600080fd5b506102c4600480360360208110156102ae57600080fd5b8101908080359060200190929190505050610742565b6040518082815260200191505060405180910390f35b3480156102e657600080fd5b506102ef6108be565b005b3480156102fd57600080fd5b506103066112ab565b005b34801561031457600080fd5b5061031d61141b565b604051808215151515815260200191505060405180910390f35b34801561034357600080fd5b5061034c6114f7565b604051808273ffffffffffffffffffffffffffffffffffffffff1673ffffffffffffffffffffffffffffffffffffffff16815260200191505060405180910390f35b34801561039a57600080fd5b506103d1600480360360408110156103b157600080fd5b810190808035906020019092919080359060200190929190505050611521565b005b3480156103df57600080fd5b506103e86115f0565b6040518082815260200191505060405180910390f35b34801561040a57600080fd5b506104136115f6565b6040518082815260200191505060405180910390f35b34801561043557600080fd5b5061043e6115fc565b005b34801561044c57600080fd5b506104556117e6565b6040518082815260200191505060405180910390f35b61049a6004803603602081101561048157600080fd5b81019080803560ff169060200190929190505050611980565b005b3480156104a857600080fd5b506104eb600480360360208110156104bf57600080fd5b81019080803573ffffffffffffffffffffffffffffffffffffffff169060200190929190505050611c5a565b005b60036020528060005260406000206000915090508060000160009054906101000a900460ff16908060010154908060020154908060030154908060040154908060050154908060060160009054906101000a900460ff16908060060160019054906101000a900460ff16905088565b60007f0000000000000000000000000000000000000000000000000000000000000000905090565b600061058e611e4f565b73ffffffffffffffffffffffffffffffffffffffff166105ac6114f7565b73ffffffffffffffffffffffffffffffffffffffff1614610635576040517f08c379a00000000000000000000000000000000000000000000000000000000081526004018080602001828103825260208152602001807f4f776e61626c653a2063616c6c6572206973206e6f7420746865206f776e657281525060200191505060405180910390fd5b60036000600654815260200190815260200160002060060160019054906101000a900460ff16905090565b600061066a611e4f565b73ffffffffffffffffffffffffffffffffffffffff166106886114f7565b73ffffffffffffffffffffffffffffffffffffffff1614610711576040517f08c379a00000000000000000000000000000000000000000000000000000000081526004018080602001828103825260208152602001807f4f776e61626c653a2063616c6c6572206973206e6f7420746865206f776e657281525060200191505060405180910390fd5b60036000600654815260200190815260200160002060000160009054906101000a900460ff16905090565b60075481565b600061074c611e4f565b73ffffffffffffffffffffffffffffffffffffffff1661076a6114f7565b73ffffffffffffffffffffffffffffffffffffffff16146107f3576040517f08c379a00000000000000000000000000000000000000000000000000000000081526004018080602001828103825260208152602001807f4f776e61626c653a2063616c6c6572206973206e6f7420746865206f776e657281525060200191505060405180910390fd5b60018214806108025750600282145b610874576040517f08c379a00000000000000000000000000000000000000000000000000000000081526004018080602001828103825260128152602001807f496e76616c696420646965206e756d626572000000000000000000000000000081525060200191505060405180910390fd5b600182141561089d576003600060065481526020019081526020016000206002015490506108b9565b6003600060065481526020019081526020016000206003015490505b919050565b6108c6611e4f565b73ffffffffffffffffffffffffffffffffffffffff166108e46114f7565b73ffffffffffffffffffffffffffffffffffffffff161461096d576040517f08c379a00000000000000000000000000000000000000000000000000000000081526004018080602001828103825260208152602001807f4f776e61626c653a2063616c6c6572206973206e6f7420746865206f776e657281525060200191505060405180910390fd5b6000600360006006548152602001908152602001600020600201541415806109ae575060006003600060065481526020019081526020016000206003015414155b610a20576040517f08c379a000000000000000000000000000000000000000000000000000000000815260040180806020018281038252600d8152602001807f496e76616c696420526f6c6c210000000000000000000000000000000000000081525060200191505060405180910390fd5b6000151560036000600654815260200190815260200160002060060160009054906101000a900460ff16151514610abf576040517f08c379a00000000000000000000000000000000000000000000000000000000081526004018080602001828103825260188152602001807f526f6c6c20697320616c726561647920636865636b656421000000000000000081525060200191505060405180910390fd5b60006003600060065481526020019081526020016000206003015460036000600654815260200190815260200160002060020154019050600060036000600654815260200190815260200160002060040154148015610b4b57506002811480610b285750600381145b80610b335750600781145b80610b3e5750600b81145b80610b495750600c81145b155b15610c375780600360006006548152602001908152602001600020600401819055507fabafc4d20fd702193d4cf8ee808273555d28d1c9f85bc1409fe27c5621ca9513610b966114f7565b60036000600654815260200190815260200160002060000160009054906101000a900460ff1660036000600654815260200190815260200160002060040154604051808473ffffffffffffffffffffffffffffffffffffffff1673ffffffffffffffffffffffffffffffffffffffff168152602001836001811115610c1757fe5b60ff168152602001828152602001935050505060405180910390a16111d1565b60006001811115610c4457fe5b60036000600654815260200190815260200160002060000160009054906101000a900460ff166001811115610c7557fe5b148015610c9a5750600060036000600654815260200190815260200160002060040154145b15610d90576007811480610cae5750600b81145b15610cbc57610cbb611e57565b5b6002811480610ccb5750600381145b80610cd65750600c81145b15610d8b577fc346a1f69c4455ab840c5e72fa8f5525af42e2d93fd102449bc88feb6c2b9fe03360036000600654815260200190815260200160002060000160009054906101000a900460ff16604051808373ffffffffffffffffffffffffffffffffffffffff1673ffffffffffffffffffffffffffffffffffffffff168152602001826001811115610d6557fe5b60ff1681526020019250505060405180910390a160016006600082825401925050819055505b6111d0565b60036000600654815260200190815260200160002060000160009054906101000a900460ff166001811115610dc157fe5b60036000600654815260200190815260200160002060000160009054906101000a900460ff166001811115610df257fe5b148015610e175750600060036000600654815260200190815260200160002060040154145b15610f0d576002811480610e2b5750600381145b80610e365750600c81145b15610e4457610e43611e57565b5b6007811480610e535750600b81145b15610f08577fc346a1f69c4455ab840c5e72fa8f5525af42e2d93fd102449bc88feb6c2b9fe03360036000600654815260200190815260200160002060000160009054906101000a900460ff16604051808373ffffffffffffffffffffffffffffffffffffffff1673ffffffffffffffffffffffffffffffffffffffff168152602001826001811115610ee257fe5b60ff1681526020019250505060405180910390a160016006600082825401925050819055505b6111cf565b60006001811115610f1a57fe5b60036000600654815260200190815260200160002060000160009054906101000a900460ff166001811115610f4b57fe5b148015610f71575060006003600060065481526020019081526020016000206004015414155b1561105d57600781141561102f577fc346a1f69c4455ab840c5e72fa8f5525af42e2d93fd102449bc88feb6c2b9fe03360036000600654815260200190815260200160002060000160009054906101000a900460ff16604051808373ffffffffffffffffffffffffffffffffffffffff1673ffffffffffffffffffffffffffffffffffffffff16815260200182600181111561100957fe5b60ff1681526020019250505060405180910390a160016006600082825401925050819055505b6003600060065481526020019081526020016000206004015481141561105857611057611e57565b5b6111ce565b60036000600654815260200190815260200160002060000160009054906101000a900460ff16600181111561108e57fe5b60036000600654815260200190815260200160002060000160009054906101000a900460ff1660018111156110bf57fe5b1480156110e5575060006003600060065481526020019081526020016000206004015414155b156111cd5760078114156110fc576110fb611e57565b5b600360006006548152602001908152602001600020600401548114156111cc577fc346a1f69c4455ab840c5e72fa8f5525af42e2d93fd102449bc88feb6c2b9fe03360036000600654815260200190815260200160002060000160009054906101000a900460ff16604051808373ffffffffffffffffffffffffffffffffffffffff1673ffffffffffffffffffffffffffffffffffffffff1681526020018260018111156111a657fe5b60ff1681526020019250505060405180910390a160016006600082825401925050819055505b5b5b5b5b5b600160036000600654815260200190815260200160002060060160006101000a81548160ff0219169083151502179055507fb8f02ed3a3c964a73cdedb83494e800034eced261a1e9deca82116794dfa5b8e3360036000600654815260200190815260200160002060000160009054906101000a900460ff1683604051808473ffffffffffffffffffffffffffffffffffffffff1673ffffffffffffffffffffffffffffffffffffffff16815260200183600181111561128d57fe5b60ff168152602001828152602001935050505060405180910390a150565b6112b3611e4f565b73ffffffffffffffffffffffffffffffffffffffff166112d16114f7565b73ffffffffffffffffffffffffffffffffffffffff161461135a576040517f08c379a00000000000000000000000000000000000000000000000000000000081526004018080602001828103825260208152602001807f4f776e61626c653a2063616c6c6572206973206e6f7420746865206f776e657281525060200191505060405180910390fd5b600073ffffffffffffffffffffffffffffffffffffffff16600160009054906101000a900473ffffffffffffffffffffffffffffffffffffffff1673ffffffffffffffffffffffffffffffffffffffff167f8be0079c531659141344cd1fd0a4f28419497f9722a3daafe3b4186f6b6457e060405160405180910390a36000600160006101000a81548173ffffffffffffffffffffffffffffffffffffffff021916908373ffffffffffffffffffffffffffffffffffffffff160217905550565b6000611425611e4f565b73ffffffffffffffffffffffffffffffffffffffff166114436114f7565b73ffffffffffffffffffffffffffffffffffffffff16146114cc576040517f08c379a00000000000000000000000000000000000000000000000000000000081526004018080602001828103825260208152602001807f4f776e61626c653a2063616c6c6572206973206e6f7420746865206f776e657281525060200191505060405180910390fd5b60036000600654815260200190815260200160002060060160009054906101000a900460ff16905090565b6000600160009054906101000a900473ffffffffffffffffffffffffffffffffffffffff16905090565b7f000000000000000000000000000000000000000000000000000000000000000073ffffffffffffffffffffffffffffffffffffffff163373ffffffffffffffffffffffffffffffffffffffff16146115e2576040517f08c379a000000000000000000000000000000000000000000000000000000000815260040180806020018281038252601f8152602001807f4f6e6c7920565246436f6f7264696e61746f722063616e2066756c66696c6c0081525060200191505060405180910390fd5b6115ec82826120bb565b5050565b60085481565b60065481565b611604611e4f565b73ffffffffffffffffffffffffffffffffffffffff166116226114f7565b73ffffffffffffffffffffffffffffffffffffffff16146116ab576040517f08c379a00000000000000000000000000000000000000000000000000000000081526004018080602001828103825260208152602001807f4f776e61626c653a2063616c6c6572206973206e6f7420746865206f776e657281525060200191505060405180910390fd5b600280541415611723576040517f08c379a000000000000000000000000000000000000000000000000000000000815260040180806020018281038252601f8152602001807f5265656e7472616e637947756172643a207265656e7472616e742063616c6c0081525060200191505060405180910390fd5b6002808190555060016006600082825401925050819055507fc346a1f69c4455ab840c5e72fa8f5525af42e2d93fd102449bc88feb6c2b9fe03360036000600160065403815260200190815260200160002060000160009054906101000a900460ff16604051808373ffffffffffffffffffffffffffffffffffffffff1673ffffffffffffffffffffffffffffffffffffffff1681526020018260018111156117c857fe5b60ff1681526020019250505060405180910390a16001600281905550565b60006117f0611e4f565b73ffffffffffffffffffffffffffffffffffffffff1661180e6114f7565b73ffffffffffffffffffffffffffffffffffffffff1614611897576040517f08c379a00000000000000000000000000000000000000000000000000000000081526004018080602001828103825260208152602001807f4f776e61626c653a2063616c6c6572206973206e6f7420746865206f776e657281525060200191505060405180910390fd5b6001151560036000600654815260200190815260200160002060060160009054906101000a900460ff16151514611936576040517f08c379a00000000000000000000000000000000000000000000000000000000081526004018080602001828103825260198152602001807f526f6c6c206e6565647320746f20626520636865636b6564210000000000000081525060200191505060405180910390fd5b61194460045460055461224f565b90507fe5f5b44d72d4143c278eb745c4acc0695c4a5bc616be5beecf46abe29661780e816040518082815260200191505060405180910390a190565b346008548110156119f9576040517f08c379a00000000000000000000000000000000000000000000000000000000081526004018080602001828103825260168152602001807f4d696e696d756d2062657420697320746f6f206c6f770000000000000000000081525060200191505060405180910390fd5b611a01611e4f565b73ffffffffffffffffffffffffffffffffffffffff16611a1f6114f7565b73ffffffffffffffffffffffffffffffffffffffff1614611aa8576040517f08c379a00000000000000000000000000000000000000000000000000000000081526004018080602001828103825260208152602001807f4f776e61626c653a2063616c6c6572206973206e6f7420746865206f776e657281525060200191505060405180910390fd5b60036000600654815260200190815260200160002060060160019054906101000a900460ff16611c5657604051806101000160405280836001811115611aea57fe5b8152602001348152602001600081526020016000815260200160008152602001600081526020016001151581526020016001151581525060036000600654815260200190815260200160002060008201518160000160006101000a81548160ff02191690836001811115611b5a57fe5b02179055506020820151816001015560408201518160020155606082015181600301556080820151816004015560a0820151816005015560c08201518160060160006101000a81548160ff02191690831515021790555060e08201518160060160016101000a81548160ff0219169083151502179055509050507f9f6b4cced64244a64465098f682029975b1614400b96bc6bd12c668083719166338334604051808473ffffffffffffffffffffffffffffffffffffffff1673ffffffffffffffffffffffffffffffffffffffff168152602001836001811115611c3a57fe5b60ff168152602001828152602001935050505060405180910390a15b5050565b611c62611e4f565b73ffffffffffffffffffffffffffffffffffffffff16611c806114f7565b73ffffffffffffffffffffffffffffffffffffffff1614611d09576040517f08c379a00000000000000000000000000000000000000000000000000000000081526004018080602001828103825260208152602001807f4f776e61626c653a2063616c6c6572206973206e6f7420746865206f776e657281525060200191505060405180910390fd5b600073ffffffffffffffffffffffffffffffffffffffff168173ffffffffffffffffffffffffffffffffffffffff161415611d8f576040517f08c379a00000000000000000000000000000000000000000000000000000000081526004018080602001828103825260268152602001806125976026913960400191505060405180910390fd5b8073ffffffffffffffffffffffffffffffffffffffff16600160009054906101000a900473ffffffffffffffffffffffffffffffffffffffff1673ffffffffffffffffffffffffffffffffffffffff167f8be0079c531659141344cd1fd0a4f28419497f9722a3daafe3b4186f6b6457e060405160405180910390a380600160006101000a81548173ffffffffffffffffffffffffffffffffffffffff021916908373ffffffffffffffffffffffffffffffffffffffff16021790555050565b600033905090565b611e5f611e4f565b73ffffffffffffffffffffffffffffffffffffffff16611e7d6114f7565b73ffffffffffffffffffffffffffffffffffffffff1614611f06576040517f08c379a00000000000000000000000000000000000000000000000000000000081526004018080602001828103825260208152602001807f4f776e61626c653a2063616c6c6572206973206e6f7420746865206f776e657281525060200191505060405180910390fd5b600280541415611f7e576040517f08c379a000000000000000000000000000000000000000000000000000000000815260040180806020018281038252601f8152602001807f5265656e7472616e637947756172643a207265656e7472616e742063616c6c0081525060200191505060405180910390fd5b6002808190555060016006600082825401925050819055506000600360006001600654038152602001908152602001600020600101546002029050611fc16114f7565b73ffffffffffffffffffffffffffffffffffffffff166108fc829081150290604051600060405180830381858888f19350505050158015612006573d6000803e3d6000fd5b507ff81695af4909e3581b736cb72b4976fcf5046b35ae7e8f1b3ba4b3e4200755753360036000600160065403815260200190815260200160002060000160009054906101000a900460ff1683604051808473ffffffffffffffffffffffffffffffffffffffff1673ffffffffffffffffffffffffffffffffffffffff16815260200183600181111561209557fe5b60ff168152602001828152602001935050505060405180910390a1506001600281905550565b6001600360006006548152602001908152602001600020600501600082825401925050819055506002600754816120ee57fe5b066007819055506000600754141561212f5760016006828161210c57fe5b06016003600060065481526020019081526020016000206002018190555061215a565b60016006828161213b57fe5b0601600360006006548152602001908152602001600020600301819055505b6001600760008282540192505081905550600260036000600654815260200190815260200160002060050154141561224b577fb05df7d2c632e8d8f904242aa3e93544c5d29d9f9462756db053511ad4d22afb6003600060065481526020019081526020016000206002015460036000600654815260200190815260200160002060030154604051808381526020018281526020019250505060405180910390a1600060036000600654815260200190815260200160002060050181905550600060036000600654815260200190815260200160002060060160006101000a81548160ff0219169083151502179055505b5050565b60007f000000000000000000000000000000000000000000000000000000000000000073ffffffffffffffffffffffffffffffffffffffff16634000aea07f00000000000000000000000000000000000000000000000000000000000000008486600060405160200180838152602001828152602001925050506040516020818303038152906040526040518463ffffffff1660e01b8152600401808473ffffffffffffffffffffffffffffffffffffffff1673ffffffffffffffffffffffffffffffffffffffff16815260200183815260200180602001828103825283818151815260200191508051906020019080838360005b8381101561235f578082015181840152602081019050612344565b50505050905090810190601f16801561238c5780820380516001836020036101000a031916815260200191505b50945050505050602060405180830381600087803b1580156123ad57600080fd5b505af11580156123c1573d6000803e3d6000fd5b505050506040513d60208110156123d757600080fd5b810190808051906020019092919050505050600061240a846000306000808981526020019081526020016000205461245b565b90506124326001600080878152602001908152602001600020546124d590919063ffffffff16565b60008086815260200190815260200160002081905550612452848261255d565b91505092915050565b600084848484604051602001808581526020018481526020018373ffffffffffffffffffffffffffffffffffffffff1673ffffffffffffffffffffffffffffffffffffffff1681526020018281526020019450505050506040516020818303038152906040528051906020012060001c9050949350505050565b600080828401905083811015612553576040517f08c379a000000000000000000000000000000000000000000000000000000000815260040180806020018281038252601b8152602001807f536166654d6174683a206164646974696f6e206f766572666c6f77000000000081525060200191505060405180910390fd5b8091505092915050565b6000828260405160200180838152602001828152602001925050506040516020818303038152906040528051906020012090509291505056fe4f776e61626c653a206e6577206f776e657220697320746865207a65726f2061646472657373a26469706673582212200238f1d209e8f37ccfeafbdd52ab41e27c55208ca4ccb1dddf18921e644ed3c464736f6c63430006060033",
  "immutableReferences": {
    "76": [
      {
        "length": 32,
        "start": 1376
      },
      {
        "length": 32,
        "start": 8787
      }
    ],
    "78": [
      {
        "length": 32,
        "start": 5411
      },
      {
        "length": 32,
        "start": 8847
      }
    ]
  },
  "source": "// SPDX-License-Identifier: MIT\npragma solidity ^0.6.6;\n\nimport \"@chainlink/contracts/src/v0.6/VRFConsumerBase.sol\";\nimport \"@openzeppelin/contracts/access/Ownable.sol\";\nimport \"@openzeppelin/contracts/utils/ReentrancyGuard.sol\";\n\n/// @title A simulation of a single person craps game\n/// @author Calvin S. Lee\n/// @notice You can use this contract to simulate a craps game; betting with ether\n/// @dev Currently only deployed on the Kovan network\n\ncontract Gamble is VRFConsumerBase, Ownable, ReentrancyGuard{\n    mapping(uint256 => Round) public games;\n\n    enum BetTypes{PASS, DONT_PASS}\n\n    event DiceResults(uint roll1, uint roll2);\n\n    event Winner(address roller, BetTypes bet, uint reward);\n\n    event Loser(address roller, BetTypes bet);\n\n    event Point(address roller, BetTypes bet, uint point);\n    \n    event BetPlaced(address bettor, BetTypes bet, uint amount);\n\n    event RollEvaluated(address bettor, BetTypes bet, uint rollValue);\n\n    event RequestedRandomness(bytes32 requestId);\n\n    bytes32 internal keyHash;\n    uint256 internal fee;\n\n    /// @notice Counter for the current betting round\n    uint256 public current = 1; \n\n    /// @notice Index that alternates which die gets assigned a value\n    uint256 public rolledIndex = 0; \n\n    /// @notice Minimum bet is 1 Finney\n    uint256 public minBet = 1000000000000000; \n \n    \n    /// @notice Enforces that the minimum bet is 1 Finney (0.001 ETH)\n    /// @param ante The bet placed on the current round, reverts if too low \n    modifier atLeastMinBet(uint ante){\n        require(ante >= minBet, \"Minimum bet is too low\");\n        _;\n    }\n\n    struct Round {\n        BetTypes typeBet;\n        uint256 betAmount;\n        uint rollOne;\n        uint rollTwo;\n        uint point;\n        uint rollCounter;\n        bool rollEvaluated; \n        bool roundComplete;\n    }\n\n    /// @dev Constructor inherits VRFConsumerBase\n    /// @dev Network: Kovan\n    /// @dev VRF coordinator address: 0xdD3782915140c8f3b190B5D67eAc6dc5760C46E9\n    /// @dev LINK token address:                0xa36085F69e2889c224210F603D836748e7dC0088\n    /// @dev Key Hash: 0x6c3699283bda56ad74f6b855546325b68d482e983852a7a82979cc4807b641f4\n\n    /// @param _linkTokenAddress Initialize the contract with the appropriate link address for network\n    /// @param _vrfCoordinatorAddress Initialize contract with correct vrf coordinator (for random number)\n    constructor(address _linkTokenAddress, bytes32 _keyHash, \n    address _vrfCoordinatorAddress, uint256 _fee)\n        public\n        VRFConsumerBase(\n            _vrfCoordinatorAddress,\n            _linkTokenAddress)\n    {\n        keyHash = _keyHash;\n        fee = _fee;\n    }\n\n    \n    /// @notice Creates a betting round and maps it to games. Will only create a new round if the current round is finished.\n    /// @param typeBet The type of bet for the current round; Pass or No Pass\n    /// @dev Is a payable function and which the value is checked against the minimum bet to see if valid\n    function createGame (BetTypes typeBet) public payable atLeastMinBet(msg.value) onlyOwner {\n        if (!games[current].roundComplete) {\n            games[current] = Round(typeBet, msg.value, 0, 0, 0, 0, true, true);\n            emit BetPlaced(msg.sender, typeBet, msg.value);\n        }\n    }\n\n\n    /// @notice Requests randomness from a user-provided seed\n    function getRandomNumber() public onlyOwner returns (bytes32 requestId) {\n        require(games[current].rollEvaluated == true, \"Roll needs to be checked!\");\n        requestId = requestRandomness(keyHash, fee);\n        emit RequestedRandomness(requestId);\n    }\n\n    \n    /// @notice Checks values against the Bet type and determines a winner, loser or re-roll according to craps rules\n    function evaluateRoll() public onlyOwner  {\n        require(games[current].rollOne != 0 || games[current].rollTwo != 0, \"Invalid Roll!\");\n        require(games[current].rollEvaluated == false, \"Roll is already checked!\");\n        \n        uint sum = games[current].rollOne + games[current].rollTwo;\n        \n        if (games[current].point == 0 && !(sum == 2 || sum == 3 || sum == 7 || sum == 11 || sum == 12)) {\n            games[current].point = sum;\n            emit Point(owner(), games[current].typeBet, games[current].point);\n        } else {\n        \n            if (games[current].typeBet == BetTypes.PASS && games[current].point == 0) {\n               if (sum == 7 || sum == 11){\n                    payOut();\n               } \n               if (sum == 2 || sum == 3 || sum == 12) {\n                   emit Loser(msg.sender, games[current].typeBet);\n                   current += 1;\n               }\n    \n           } else if (games[current].typeBet == games[current].typeBet && games[current].point == 0) {\n               if (sum == 2 || sum == 3 || sum == 12) {\n                    payOut();\n               } \n               if (sum == 7 || sum == 11){\n                    emit Loser(msg.sender, games[current].typeBet);\n                    current += 1;\n               }\n               \n           } else if (games[current].typeBet == BetTypes.PASS && games[current].point != 0) {\n               if (sum == 7) {\n                   emit Loser(msg.sender, games[current].typeBet);\n                   current += 1;\n               }\n               if (sum == games[current].point) {\n                   payOut();  \n               }\n               \n           } else if (games[current].typeBet == games[current].typeBet && games[current].point != 0) {\n               if (sum == 7) {\n                   payOut();\n               }\n               if (sum == games[current].point) {\n                   emit Loser(msg.sender, games[current].typeBet);\n                   current += 1;\n               }  \n            }\n        }\n        /// @dev Ensures that you must evaluate the roll before rolling again. (No do-overs)\n        games[current].rollEvaluated = true;\n        emit RollEvaluated(msg.sender, games[current].typeBet, sum);\n     \n    }\n\n    function quitGame() public onlyOwner nonReentrant{\n        current += 1;\n        emit Loser(msg.sender, games[current - 1].typeBet);\n    }\n    \n    \n    /// @notice Pay out method, awarded if roller wins.\n    /// @dev Applied nonReentrant modifier to provide protection against recursive reentrancy attack\n    function payOut () internal onlyOwner nonReentrant  {\n        current += 1;\n        uint reward = 2 * games[current - 1].betAmount;\n        payable(owner()).transfer(reward);\n        emit Winner(msg.sender, games[current - 1].typeBet, reward);  \n    }\n\n    /** \n     * Requests the address of the Chainlink Token on this network \n     */\n    function getChainlinkToken() public view returns (address) {\n        return address(LINK);\n    }\n\n    fallback() external payable {}\n\n    receive() external payable {}\n\n    /// @notice Assigns a random number 1-6 to the roll values of the current round\n    /// @dev Callback function used by VRF Coordinator\n    /// @param requestId The address to recieve the random number data.\n    /// @param randomness The random number returned.\n    function fulfillRandomness (bytes32 requestId, uint256 randomness) internal override {\n        games[current].rollCounter += 1;\n        rolledIndex = rolledIndex % 2;\n        if (rolledIndex == 0) {\n            games[current].rollOne = (randomness % 6) + 1;\n        } else {\n            games[current].rollTwo = (randomness % 6) + 1;\n        }\n        rolledIndex += 1;\n        \n        if (games[current].rollCounter == 2){\n            // Emits the roll of the two dice.\n            emit DiceResults(games[current].rollOne, games[current].rollTwo);\n            games[current].rollCounter = 0;\n            games[current].rollEvaluated = false;\n        }\n    }\n    \n    /// @dev Getter function mainly used for testing purposes\n    /// @return Returns the type of bet for the current round\n    function getCurrentBetType() public view onlyOwner returns(BetTypes) {\n            return games[current].typeBet;\n        }\n\n    function isRollEvaluated() public view onlyOwner returns(bool) {\n        return games[current].rollEvaluated;\n    }\n\n    function isRoundOver() public view onlyOwner returns(bool) {\n        return games[current].roundComplete;\n    }\n\n    /// @dev Getter function mainly used for testing purposes\n    /// @param dieNum The die whose face value is being requested\n    /// @return Returns the value of either die 1 or die 2\n    function getCurrentRollValues (uint dieNum) public onlyOwner  view returns(uint) {\n        require(dieNum == 1 || dieNum == 2, \"Invalid die number\");\n        if (dieNum == 1) {\n            return games[current].rollOne;\n        } else {\n            return games[current].rollTwo;\n        }\n        \n    }\n}\n",
  "sourcePath": "/home/sensor47/Chainlink/contracts/Gamble.sol",
  "compiler": {
    "name": "solc",
    "version": "0.6.6+commit.6c089d02.Emscripten.clang"
  },
  "schemaVersion": "3.4.3",
  "updatedAt": "2022-01-04T01:00:59.756Z",
  "networkType": "ethereum",
  "devdoc": {
    "author": "Calvin S. Lee",
    "details": "Currently only deployed on the Kovan network",
    "methods": {
      "constructor": {
        "details": "Constructor inherits VRFConsumerBaseNetwork: KovanVRF coordinator address: 0xdD3782915140c8f3b190B5D67eAc6dc5760C46E9LINK token address:                0xa36085F69e2889c224210F603D836748e7dC0088Key Hash: 0x6c3699283bda56ad74f6b855546325b68d482e983852a7a82979cc4807b641f4",
        "params": {
          "_linkTokenAddress": "Initialize the contract with the appropriate link address for network",
          "_vrfCoordinatorAddress": "Initialize contract with correct vrf coordinator (for random number)"
        }
      },
      "createGame(uint8)": {
        "details": "Is a payable function and which the value is checked against the minimum bet to see if valid",
        "params": {
          "typeBet": "The type of bet for the current round; Pass or No Pass"
        }
      },
      "getCurrentBetType()": {
        "details": "Getter function mainly used for testing purposes",
        "returns": {
          "_0": "Returns the type of bet for the current round"
        }
      },
      "getCurrentRollValues(uint256)": {
        "details": "Getter function mainly used for testing purposes",
        "params": {
          "dieNum": "The die whose face value is being requested"
        },
        "returns": {
          "_0": "Returns the value of either die 1 or die 2"
        }
      },
      "owner()": {
        "details": "Returns the address of the current owner."
      },
      "renounceOwnership()": {
        "details": "Leaves the contract without owner. It will not be possible to call `onlyOwner` functions anymore. Can only be called by the current owner.     * NOTE: Renouncing ownership will leave the contract without an owner, thereby removing any functionality that is only available to the owner."
      },
      "transferOwnership(address)": {
        "details": "Transfers ownership of the contract to a new account (`newOwner`). Can only be called by the current owner."
      }
    },
    "title": "A simulation of a single person craps game"
  },
  "userdoc": {
    "methods": {
      "createGame(uint8)": {
        "notice": "Creates a betting round and maps it to games. Will only create a new round if the current round is finished."
      },
      "evaluateRoll()": {
        "notice": "Checks values against the Bet type and determines a winner, loser or re-roll according to craps rules"
      },
      "getChainlinkToken()": {
        "notice": "Requests the address of the Chainlink Token on this network "
      },
      "getRandomNumber()": {
        "notice": "Requests randomness from a user-provided seed"
      }
    },
    "notice": "You can use this contract to simulate a craps game; betting with ether"
  }
}