{
  "contractName": "Gamble",
  "abi": [
    {
      "inputs": [
        {
          "internalType": "address",
          "name": "_linkTokenAddress",
          "type": "address"
        },
        {
          "internalType": "bytes32",
          "name": "_keyHash",
          "type": "bytes32"
        },
        {
          "internalType": "address",
          "name": "_vrfCoordinatorAddress",
          "type": "address"
        },
        {
          "internalType": "uint256",
          "name": "_fee",
          "type": "uint256"
        }
      ],
      "stateMutability": "nonpayable",
      "type": "constructor"
    },
    {
      "anonymous": false,
      "inputs": [
        {
          "indexed": false,
          "internalType": "address",
          "name": "bettor",
          "type": "address"
        },
        {
          "indexed": false,
          "internalType": "enum Gamble.BetTypes",
          "name": "bet",
          "type": "uint8"
        },
        {
          "indexed": false,
          "internalType": "uint256",
          "name": "amount",
          "type": "uint256"
        }
      ],
      "name": "BetPlaced",
      "type": "event"
    },
    {
      "anonymous": false,
      "inputs": [
        {
          "indexed": false,
          "internalType": "uint256",
          "name": "roll1",
          "type": "uint256"
        },
        {
          "indexed": false,
          "internalType": "uint256",
          "name": "roll2",
          "type": "uint256"
        }
      ],
      "name": "DiceResults",
      "type": "event"
    },
    {
      "anonymous": false,
      "inputs": [
        {
          "indexed": false,
          "internalType": "address",
          "name": "roller",
          "type": "address"
        },
        {
          "indexed": false,
          "internalType": "enum Gamble.BetTypes",
          "name": "bet",
          "type": "uint8"
        },
        {
          "indexed": false,
          "internalType": "uint256",
          "name": "reward",
          "type": "uint256"
        },
        {
          "indexed": false,
          "internalType": "uint256",
          "name": "number",
          "type": "uint256"
        }
      ],
      "name": "HardBetWinner",
      "type": "event"
    },
    {
      "anonymous": false,
      "inputs": [
        {
          "indexed": false,
          "internalType": "address",
          "name": "roller",
          "type": "address"
        },
        {
          "indexed": false,
          "internalType": "enum Gamble.BetTypes",
          "name": "bet",
          "type": "uint8"
        }
      ],
      "name": "Loser",
      "type": "event"
    },
    {
      "anonymous": false,
      "inputs": [
        {
          "indexed": true,
          "internalType": "address",
          "name": "previousOwner",
          "type": "address"
        },
        {
          "indexed": true,
          "internalType": "address",
          "name": "newOwner",
          "type": "address"
        }
      ],
      "name": "OwnershipTransferred",
      "type": "event"
    },
    {
      "anonymous": false,
      "inputs": [
        {
          "indexed": false,
          "internalType": "address",
          "name": "roller",
          "type": "address"
        },
        {
          "indexed": false,
          "internalType": "enum Gamble.BetTypes",
          "name": "bet",
          "type": "uint8"
        },
        {
          "indexed": false,
          "internalType": "uint256",
          "name": "point",
          "type": "uint256"
        }
      ],
      "name": "Point",
      "type": "event"
    },
    {
      "anonymous": false,
      "inputs": [
        {
          "indexed": false,
          "internalType": "bytes32",
          "name": "requestId",
          "type": "bytes32"
        }
      ],
      "name": "RequestedRandomness",
      "type": "event"
    },
    {
      "anonymous": false,
      "inputs": [
        {
          "indexed": false,
          "internalType": "address",
          "name": "bettor",
          "type": "address"
        },
        {
          "indexed": false,
          "internalType": "enum Gamble.BetTypes",
          "name": "bet",
          "type": "uint8"
        },
        {
          "indexed": false,
          "internalType": "uint256",
          "name": "rollValue",
          "type": "uint256"
        }
      ],
      "name": "RollEvaluated",
      "type": "event"
    },
    {
      "anonymous": false,
      "inputs": [
        {
          "indexed": false,
          "internalType": "address",
          "name": "bettor",
          "type": "address"
        },
        {
          "indexed": false,
          "internalType": "enum Gamble.BetTypes",
          "name": "sideBet",
          "type": "uint8"
        },
        {
          "indexed": false,
          "internalType": "uint256",
          "name": "amount",
          "type": "uint256"
        },
        {
          "indexed": false,
          "internalType": "uint256",
          "name": "number",
          "type": "uint256"
        }
      ],
      "name": "SideBetPlaced",
      "type": "event"
    },
    {
      "anonymous": false,
      "inputs": [
        {
          "indexed": false,
          "internalType": "address",
          "name": "roller",
          "type": "address"
        },
        {
          "indexed": false,
          "internalType": "enum Gamble.BetTypes",
          "name": "bet",
          "type": "uint8"
        },
        {
          "indexed": false,
          "internalType": "uint256",
          "name": "reward",
          "type": "uint256"
        }
      ],
      "name": "SixEightBetWinner",
      "type": "event"
    },
    {
      "anonymous": false,
      "inputs": [
        {
          "indexed": false,
          "internalType": "address",
          "name": "roller",
          "type": "address"
        },
        {
          "indexed": false,
          "internalType": "enum Gamble.BetTypes",
          "name": "bet",
          "type": "uint8"
        },
        {
          "indexed": false,
          "internalType": "uint256",
          "name": "reward",
          "type": "uint256"
        }
      ],
      "name": "Winner",
      "type": "event"
    },
    {
      "stateMutability": "payable",
      "type": "fallback",
      "payable": true
    },
    {
      "inputs": [],
      "name": "current",
      "outputs": [
        {
          "internalType": "uint256",
          "name": "",
          "type": "uint256"
        }
      ],
      "stateMutability": "view",
      "type": "function",
      "constant": true
    },
    {
      "inputs": [
        {
          "internalType": "uint256",
          "name": "",
          "type": "uint256"
        }
      ],
      "name": "games",
      "outputs": [
        {
          "internalType": "enum Gamble.BetTypes",
          "name": "typeBet",
          "type": "uint8"
        },
        {
          "internalType": "uint256",
          "name": "betAmount",
          "type": "uint256"
        },
        {
          "internalType": "uint256",
          "name": "sixEightBet",
          "type": "uint256"
        },
        {
          "internalType": "uint256",
          "name": "hardBet",
          "type": "uint256"
        },
        {
          "internalType": "uint256",
          "name": "rollOne",
          "type": "uint256"
        },
        {
          "internalType": "uint256",
          "name": "rollTwo",
          "type": "uint256"
        },
        {
          "internalType": "uint256",
          "name": "point",
          "type": "uint256"
        },
        {
          "internalType": "uint256",
          "name": "hardNum",
          "type": "uint256"
        },
        {
          "internalType": "uint256",
          "name": "rollCounter",
          "type": "uint256"
        },
        {
          "internalType": "bool",
          "name": "rollEvaluated",
          "type": "bool"
        },
        {
          "internalType": "bool",
          "name": "roundComplete",
          "type": "bool"
        },
        {
          "internalType": "bool",
          "name": "sixEightBetOn",
          "type": "bool"
        },
        {
          "internalType": "bool",
          "name": "hardBetOn",
          "type": "bool"
        }
      ],
      "stateMutability": "view",
      "type": "function",
      "constant": true
    },
    {
      "inputs": [],
      "name": "minBet",
      "outputs": [
        {
          "internalType": "uint256",
          "name": "",
          "type": "uint256"
        }
      ],
      "stateMutability": "view",
      "type": "function",
      "constant": true
    },
    {
      "inputs": [],
      "name": "minSideBet",
      "outputs": [
        {
          "internalType": "uint256",
          "name": "",
          "type": "uint256"
        }
      ],
      "stateMutability": "view",
      "type": "function",
      "constant": true
    },
    {
      "inputs": [],
      "name": "owner",
      "outputs": [
        {
          "internalType": "address",
          "name": "",
          "type": "address"
        }
      ],
      "stateMutability": "view",
      "type": "function",
      "constant": true
    },
    {
      "inputs": [
        {
          "internalType": "bytes32",
          "name": "requestId",
          "type": "bytes32"
        },
        {
          "internalType": "uint256",
          "name": "randomness",
          "type": "uint256"
        }
      ],
      "name": "rawFulfillRandomness",
      "outputs": [],
      "stateMutability": "nonpayable",
      "type": "function"
    },
    {
      "inputs": [],
      "name": "renounceOwnership",
      "outputs": [],
      "stateMutability": "nonpayable",
      "type": "function"
    },
    {
      "inputs": [],
      "name": "rolledIndex",
      "outputs": [
        {
          "internalType": "uint256",
          "name": "",
          "type": "uint256"
        }
      ],
      "stateMutability": "view",
      "type": "function",
      "constant": true
    },
    {
      "inputs": [
        {
          "internalType": "address",
          "name": "newOwner",
          "type": "address"
        }
      ],
      "name": "transferOwnership",
      "outputs": [],
      "stateMutability": "nonpayable",
      "type": "function"
    },
    {
      "stateMutability": "payable",
      "type": "receive",
      "payable": true
    },
    {
      "inputs": [
        {
          "internalType": "enum Gamble.BetTypes",
          "name": "typeBet",
          "type": "uint8"
        }
      ],
      "name": "createGame",
      "outputs": [],
      "stateMutability": "payable",
      "type": "function",
      "payable": true
    },
    {
      "inputs": [
        {
          "internalType": "enum Gamble.BetTypes",
          "name": "sideBet",
          "type": "uint8"
        },
        {
          "internalType": "uint256",
          "name": "number",
          "type": "uint256"
        }
      ],
      "name": "placeSideBet",
      "outputs": [],
      "stateMutability": "payable",
      "type": "function",
      "payable": true
    },
    {
      "inputs": [],
      "name": "getRandomNumber",
      "outputs": [
        {
          "internalType": "bytes32",
          "name": "requestId",
          "type": "bytes32"
        }
      ],
      "stateMutability": "nonpayable",
      "type": "function"
    },
    {
      "inputs": [],
      "name": "evaluateRoll",
      "outputs": [],
      "stateMutability": "nonpayable",
      "type": "function"
    },
    {
      "inputs": [],
      "name": "sideBetEvaluation",
      "outputs": [],
      "stateMutability": "nonpayable",
      "type": "function"
    },
    {
      "inputs": [],
      "name": "quitGame",
      "outputs": [],
      "stateMutability": "nonpayable",
      "type": "function"
    },
    {
      "inputs": [
        {
          "internalType": "uint256",
          "name": "amount",
          "type": "uint256"
        }
      ],
      "name": "withdrawEther",
      "outputs": [],
      "stateMutability": "payable",
      "type": "function",
      "payable": true
    },
    {
      "inputs": [
        {
          "internalType": "uint256",
          "name": "amount",
          "type": "uint256"
        }
      ],
      "name": "withdrawLink",
      "outputs": [],
      "stateMutability": "nonpayable",
      "type": "function"
    },
    {
      "inputs": [],
      "name": "getChainlinkToken",
      "outputs": [
        {
          "internalType": "address",
          "name": "",
          "type": "address"
        }
      ],
      "stateMutability": "view",
      "type": "function",
      "constant": true
    },
    {
      "inputs": [],
      "name": "getCurrentBetType",
      "outputs": [
        {
          "internalType": "enum Gamble.BetTypes",
          "name": "",
          "type": "uint8"
        }
      ],
      "stateMutability": "view",
      "type": "function",
      "constant": true
    },
    {
      "inputs": [],
      "name": "confirmSixEightBet",
      "outputs": [
        {
          "internalType": "enum Gamble.BetTypes",
          "name": "",
          "type": "uint8"
        }
      ],
      "stateMutability": "view",
      "type": "function",
      "constant": true
    },
    {
      "inputs": [],
      "name": "confirmHardBet",
      "outputs": [
        {
          "internalType": "enum Gamble.BetTypes",
          "name": "",
          "type": "uint8"
        }
      ],
      "stateMutability": "view",
      "type": "function",
      "constant": true
    },
    {
      "inputs": [],
      "name": "getHardNum",
      "outputs": [
        {
          "internalType": "uint256",
          "name": "",
          "type": "uint256"
        }
      ],
      "stateMutability": "view",
      "type": "function",
      "constant": true
    },
    {
      "inputs": [],
      "name": "isRollEvaluated",
      "outputs": [
        {
          "internalType": "bool",
          "name": "",
          "type": "bool"
        }
      ],
      "stateMutability": "view",
      "type": "function",
      "constant": true
    },
    {
      "inputs": [],
      "name": "isRoundOver",
      "outputs": [
        {
          "internalType": "bool",
          "name": "",
          "type": "bool"
        }
      ],
      "stateMutability": "view",
      "type": "function",
      "constant": true
    },
    {
      "inputs": [
        {
          "internalType": "uint256",
          "name": "dieNum",
          "type": "uint256"
        }
      ],
      "name": "getCurrentRollValues",
      "outputs": [
        {
          "internalType": "uint256",
          "name": "",
          "type": "uint256"
        }
      ],
      "stateMutability": "view",
      "type": "function",
      "constant": true
    }
  ],
  "bytecode": "0x60c06040526001600655600060075566038d7ea4c680006008556601c6bf526340006009553480156200003157600080fd5b506040516200396838038062003968833981810160405260808110156200005757600080fd5b810190808051906020019092919080519060200190929190805190602001909291908051906020019092919050505081848173ffffffffffffffffffffffffffffffffffffffff1660a08173ffffffffffffffffffffffffffffffffffffffff1660601b815250508073ffffffffffffffffffffffffffffffffffffffff1660808173ffffffffffffffffffffffffffffffffffffffff1660601b81525050505060006200010a620001c960201b60201c565b905080600160006101000a81548173ffffffffffffffffffffffffffffffffffffffff021916908373ffffffffffffffffffffffffffffffffffffffff1602179055508073ffffffffffffffffffffffffffffffffffffffff16600073ffffffffffffffffffffffffffffffffffffffff167f8be0079c531659141344cd1fd0a4f28419497f9722a3daafe3b4186f6b6457e060405160405180910390a3506001600281905550826004819055508060058190555050505050620001d1565b600033905090565b60805160601c60a05160601c61375e6200020a6000398061285b52806133fb5250806107ae52806121dc52806133bf525061375e6000f3fe60806040526004361061016a5760003560e01c80637a8042bd116100d15780639619367d1161008a578063cafcf53c11610064578063cafcf53c1461061d578063dbdff2c114610656578063e580f6ab14610681578063f2fde38b146106b257610171565b80639619367d146105b05780639fa6a6e3146105db578063b4a605121461060657610171565b80637a8042bd14610436578063820b63b2146104715780638da5cb5b146104a05780638f8b7924146104f75780639398f1af1461053057806394985ddd1461056b57610171565b80635568de95116101235780635568de951461034c5780635e61140614610377578063602332a1146103a257806365462ed8146103f157806368e5252114610408578063715018a61461041f57610171565b8063117a5b9014610173578063165d35e1146102345780631b6c06211461028b578063305876a7146102b65780633bed33ce146102e557806345ff606a1461031357610171565b3661017157005b005b34801561017f57600080fd5b506101ac6004803603602081101561019657600080fd5b8101908080359060200190929190505050610703565b604051808e60048111156101bc57fe5b60ff1681526020018d81526020018c81526020018b81526020018a8152602001898152602001888152602001878152602001868152602001851515151581526020018415151515815260200183151515158152602001821515151581526020019d505050505050505050505050505060405180910390f35b34801561024057600080fd5b506102496107aa565b604051808273ffffffffffffffffffffffffffffffffffffffff1673ffffffffffffffffffffffffffffffffffffffff16815260200191505060405180910390f35b34801561029757600080fd5b506102a06107d2565b6040518082815260200191505060405180910390f35b3480156102c257600080fd5b506102cb6108a1565b604051808215151515815260200191505060405180910390f35b610311600480360360208110156102fb57600080fd5b810190808035906020019092919050505061097d565b005b34801561031f57600080fd5b50610328610af3565b6040518082600481111561033857fe5b60ff16815260200191505060405180910390f35b34801561035857600080fd5b50610361610bcf565b6040518082815260200191505060405180910390f35b34801561038357600080fd5b5061038c610bd5565b6040518082815260200191505060405180910390f35b3480156103ae57600080fd5b506103db600480360360208110156103c557600080fd5b8101908080359060200190929190505050610bdb565b6040518082815260200191505060405180910390f35b3480156103fd57600080fd5b50610406610d57565b005b34801561041457600080fd5b5061041d61164d565b005b34801561042b57600080fd5b50610434611fbb565b005b34801561044257600080fd5b5061046f6004803603602081101561045957600080fd5b810190808035906020019092919050505061212b565b005b34801561047d57600080fd5b50610486612338565b604051808215151515815260200191505060405180910390f35b3480156104ac57600080fd5b506104b5612414565b604051808273ffffffffffffffffffffffffffffffffffffffff1673ffffffffffffffffffffffffffffffffffffffff16815260200191505060405180910390f35b34801561050357600080fd5b5061050c61243e565b6040518082600481111561051c57fe5b60ff16815260200191505060405180910390f35b6105696004803603604081101561054657600080fd5b81019080803560ff1690602001909291908035906020019092919050505061252b565b005b34801561057757600080fd5b506105ae6004803603604081101561058e57600080fd5b810190808035906020019092919080359060200190929190505050612859565b005b3480156105bc57600080fd5b506105c5612928565b6040518082815260200191505060405180910390f35b3480156105e757600080fd5b506105f061292e565b6040518082815260200191505060405180910390f35b34801561061257600080fd5b5061061b612934565b005b34801561062957600080fd5b506106326129e8565b6040518082600481111561064257fe5b60ff16815260200191505060405180910390f35b34801561066257600080fd5b5061066b612ad5565b6040518082815260200191505060405180910390f35b6106b06004803603602081101561069757600080fd5b81019080803560ff169060200190929190505050612bc0565b005b3480156106be57600080fd5b50610701600480360360208110156106d557600080fd5b81019080803573ffffffffffffffffffffffffffffffffffffffff169060200190929190505050612e75565b005b60036020528060005260406000206000915090508060000160009054906101000a900460ff16908060010154908060020154908060030154908060040154908060050154908060060154908060070154908060080154908060090160009054906101000a900460ff16908060090160019054906101000a900460ff16908060090160029054906101000a900460ff16908060090160039054906101000a900460ff1690508d565b60007f0000000000000000000000000000000000000000000000000000000000000000905090565b60006107dc61306a565b73ffffffffffffffffffffffffffffffffffffffff166107fa612414565b73ffffffffffffffffffffffffffffffffffffffff1614610883576040517f08c379a00000000000000000000000000000000000000000000000000000000081526004018080602001828103825260208152602001807f4f776e61626c653a2063616c6c6572206973206e6f7420746865206f776e657281525060200191505060405180910390fd5b60036000600654815260200190815260200160002060070154905090565b60006108ab61306a565b73ffffffffffffffffffffffffffffffffffffffff166108c9612414565b73ffffffffffffffffffffffffffffffffffffffff1614610952576040517f08c379a00000000000000000000000000000000000000000000000000000000081526004018080602001828103825260208152602001807f4f776e61626c653a2063616c6c6572206973206e6f7420746865206f776e657281525060200191505060405180910390fd5b60036000600654815260200190815260200160002060090160019054906101000a900460ff16905090565b61098561306a565b73ffffffffffffffffffffffffffffffffffffffff166109a3612414565b73ffffffffffffffffffffffffffffffffffffffff1614610a2c576040517f08c379a00000000000000000000000000000000000000000000000000000000081526004018080602001828103825260208152602001807f4f776e61626c653a2063616c6c6572206973206e6f7420746865206f776e657281525060200191505060405180910390fd5b80471015610aa2576040517f08c379a00000000000000000000000000000000000000000000000000000000081526004018080602001828103825260148152602001807f496e73756666696369656e742062616c616e636500000000000000000000000081525060200191505060405180910390fd5b610aaa612414565b73ffffffffffffffffffffffffffffffffffffffff166108fc829081150290604051600060405180830381858888f19350505050158015610aef573d6000803e3d6000fd5b5050565b6000610afd61306a565b73ffffffffffffffffffffffffffffffffffffffff16610b1b612414565b73ffffffffffffffffffffffffffffffffffffffff1614610ba4576040517f08c379a00000000000000000000000000000000000000000000000000000000081526004018080602001828103825260208152602001807f4f776e61626c653a2063616c6c6572206973206e6f7420746865206f776e657281525060200191505060405180910390fd5b60036000600654815260200190815260200160002060000160009054906101000a900460ff16905090565b60095481565b60075481565b6000610be561306a565b73ffffffffffffffffffffffffffffffffffffffff16610c03612414565b73ffffffffffffffffffffffffffffffffffffffff1614610c8c576040517f08c379a00000000000000000000000000000000000000000000000000000000081526004018080602001828103825260208152602001807f4f776e61626c653a2063616c6c6572206973206e6f7420746865206f776e657281525060200191505060405180910390fd5b6001821480610c9b5750600282145b610d0d576040517f08c379a00000000000000000000000000000000000000000000000000000000081526004018080602001828103825260128152602001807f496e76616c696420646965206e756d626572000000000000000000000000000081525060200191505060405180910390fd5b6001821415610d3657600360006006548152602001908152602001600020600401549050610d52565b6003600060065481526020019081526020016000206005015490505b919050565b600060036000600654815260200190815260200160002060040154141580610d98575060006003600060065481526020019081526020016000206005015414155b610e0a576040517f08c379a000000000000000000000000000000000000000000000000000000000815260040180806020018281038252600d8152602001807f496e76616c696420526f6c6c210000000000000000000000000000000000000081525060200191505060405180910390fd5b6000151560036000600654815260200190815260200160002060090160009054906101000a900460ff16151514610ea9576040517f08c379a00000000000000000000000000000000000000000000000000000000081526004018080602001828103825260188152602001807f526f6c6c20697320616c726561647920636865636b656421000000000000000081525060200191505060405180910390fd5b60006003600060065481526020019081526020016000206005015460036000600654815260200190815260200160002060040154019050600060036000600654815260200190815260200160002060060154148015610f3557506002811480610f125750600381145b80610f1d5750600781145b80610f285750600b81145b80610f335750600c81145b155b156110215780600360006006548152602001908152602001600020600601819055507fabafc4d20fd702193d4cf8ee808273555d28d1c9f85bc1409fe27c5621ca9513610f80612414565b60036000600654815260200190815260200160002060000160009054906101000a900460ff1660036000600654815260200190815260200160002060060154604051808473ffffffffffffffffffffffffffffffffffffffff1673ffffffffffffffffffffffffffffffffffffffff16815260200183600481111561100157fe5b60ff168152602001828152602001935050505060405180910390a1611573565b6000600481111561102e57fe5b60036000600654815260200190815260200160002060000160009054906101000a900460ff16600481111561105f57fe5b1480156110845750600060036000600654815260200190815260200160002060060154145b1561117a5760078114806110985750600b81145b156110a6576110a5613072565b5b60028114806110b55750600381145b806110c05750600c81145b15611175577fc346a1f69c4455ab840c5e72fa8f5525af42e2d93fd102449bc88feb6c2b9fe03360036000600654815260200190815260200160002060000160009054906101000a900460ff16604051808373ffffffffffffffffffffffffffffffffffffffff1673ffffffffffffffffffffffffffffffffffffffff16815260200182600481111561114f57fe5b60ff1681526020019250505060405180910390a160016006600082825401925050819055505b611572565b6001600481111561118757fe5b60036000600654815260200190815260200160002060000160009054906101000a900460ff1660048111156111b857fe5b1480156111dd5750600060036000600654815260200190815260200160002060060154145b156112d35760028114806111f15750600381145b806111fc5750600c81145b1561120a57611209613072565b5b60078114806112195750600b81145b156112ce577fc346a1f69c4455ab840c5e72fa8f5525af42e2d93fd102449bc88feb6c2b9fe03360036000600654815260200190815260200160002060000160009054906101000a900460ff16604051808373ffffffffffffffffffffffffffffffffffffffff1673ffffffffffffffffffffffffffffffffffffffff1681526020018260048111156112a857fe5b60ff1681526020019250505060405180910390a160016006600082825401925050819055505b611571565b600060048111156112e057fe5b60036000600654815260200190815260200160002060000160009054906101000a900460ff16600481111561131157fe5b148015611337575060006003600060065481526020019081526020016000206006015414155b156114235760078114156113f5577fc346a1f69c4455ab840c5e72fa8f5525af42e2d93fd102449bc88feb6c2b9fe03360036000600654815260200190815260200160002060000160009054906101000a900460ff16604051808373ffffffffffffffffffffffffffffffffffffffff1673ffffffffffffffffffffffffffffffffffffffff1681526020018260048111156113cf57fe5b60ff1681526020019250505060405180910390a160016006600082825401925050819055505b6003600060065481526020019081526020016000206006015481141561141e5761141d613072565b5b611570565b6001600481111561143057fe5b60036000600654815260200190815260200160002060000160009054906101000a900460ff16600481111561146157fe5b148015611487575060006003600060065481526020019081526020016000206006015414155b1561156f57600781141561149e5761149d613072565b5b6003600060065481526020019081526020016000206006015481141561156e577fc346a1f69c4455ab840c5e72fa8f5525af42e2d93fd102449bc88feb6c2b9fe03360036000600654815260200190815260200160002060000160009054906101000a900460ff16604051808373ffffffffffffffffffffffffffffffffffffffff1673ffffffffffffffffffffffffffffffffffffffff16815260200182600481111561154857fe5b60ff1681526020019250505060405180910390a160016006600082825401925050819055505b5b5b5b5b5b600160036000600654815260200190815260200160002060090160006101000a81548160ff0219169083151502179055507fb8f02ed3a3c964a73cdedb83494e800034eced261a1e9deca82116794dfa5b8e3360036000600654815260200190815260200160002060000160009054906101000a900460ff1683604051808473ffffffffffffffffffffffffffffffffffffffff1673ffffffffffffffffffffffffffffffffffffffff16815260200183600481111561162f57fe5b60ff168152602001828152602001935050505060405180910390a150565b6002805414156116c5576040517f08c379a000000000000000000000000000000000000000000000000000000000815260040180806020018281038252601f8152602001807f5265656e7472616e637947756172643a207265656e7472616e742063616c6c0081525060200191505060405180910390fd5b6002808190555060036000600654815260200190815260200160002060090160029054906101000a900460ff168061171f575060036000600654815260200190815260200160002060090160039054906101000a900460ff165b611791576040517f08c379a00000000000000000000000000000000000000000000000000000000081526004018080602001828103825260148152602001807f4e6f2073696465206265747320706c616365642100000000000000000000000081525060200191505060405180910390fd5b6000600360006006548152602001908152602001600020600501546003600060065481526020019081526020016000206004015401905060036000600654815260200190815260200160002060090160039054906101000a900460ff1615611e365760048114156119845760026003600060065481526020019081526020016000206004015414801561183c5750600260036000600654815260200190815260200160002060050154145b15611983576000600360006006548152602001908152602001600020600301546008029050600060036000600654815260200190815260200160002060090160036101000a81548160ff0219169083151502179055506000600360006006548152602001908152602001600020600301819055503373ffffffffffffffffffffffffffffffffffffffff166108fc829081150290604051600060405180830381858888f193505050501580156118f6573d6000803e3d6000fd5b507faa3aee1ef6d8970b5d1ed7711e649769b922f4e25267c6bed3da31e35ed6affe3360038385604051808573ffffffffffffffffffffffffffffffffffffffff1673ffffffffffffffffffffffffffffffffffffffff16815260200184600481111561195f57fe5b60ff16815260200183815260200182815260200194505050505060405180910390a1505b5b600a811415611b15576005600360006006548152602001908152602001600020600401541480156119cd5750600560036000600654815260200190815260200160002060050154145b15611b14576000600360006006548152602001908152602001600020600301546008029050600060036000600654815260200190815260200160002060090160036101000a81548160ff0219169083151502179055506000600360006006548152602001908152602001600020600301819055503373ffffffffffffffffffffffffffffffffffffffff166108fc829081150290604051600060405180830381858888f19350505050158015611a87573d6000803e3d6000fd5b507faa3aee1ef6d8970b5d1ed7711e649769b922f4e25267c6bed3da31e35ed6affe3360038385604051808573ffffffffffffffffffffffffffffffffffffffff1673ffffffffffffffffffffffffffffffffffffffff168152602001846004811115611af057fe5b60ff16815260200183815260200182815260200194505050505060405180910390a1505b5b6006811415611ca4576003806000600654815260200190815260200160002060040154148015611b5c57506003806000600654815260200190815260200160002060050154145b15611ca357600060036000600654815260200190815260200160002060030154600a029050600060036000600654815260200190815260200160002060090160036101000a81548160ff0219169083151502179055506000600360006006548152602001908152602001600020600301819055503373ffffffffffffffffffffffffffffffffffffffff166108fc829081150290604051600060405180830381858888f19350505050158015611c16573d6000803e3d6000fd5b507faa3aee1ef6d8970b5d1ed7711e649769b922f4e25267c6bed3da31e35ed6affe3360038385604051808573ffffffffffffffffffffffffffffffffffffffff1673ffffffffffffffffffffffffffffffffffffffff168152602001846004811115611c7f57fe5b60ff16815260200183815260200182815260200194505050505060405180910390a1505b5b6008811415611e3557600460036000600654815260200190815260200160002060040154148015611ced5750600460036000600654815260200190815260200160002060050154145b15611e3457600060036000600654815260200190815260200160002060030154600a029050600060036000600654815260200190815260200160002060090160036101000a81548160ff0219169083151502179055506000600360006006548152602001908152602001600020600301819055503373ffffffffffffffffffffffffffffffffffffffff166108fc829081150290604051600060405180830381858888f19350505050158015611da7573d6000803e3d6000fd5b507faa3aee1ef6d8970b5d1ed7711e649769b922f4e25267c6bed3da31e35ed6affe3360038385604051808573ffffffffffffffffffffffffffffffffffffffff1673ffffffffffffffffffffffffffffffffffffffff168152602001846004811115611e1057fe5b60ff16815260200183815260200182815260200194505050505060405180910390a1505b5b5b60036000600654815260200190815260200160002060090160029054906101000a900460ff1615611fb0576006811480611e705750600881145b15611faf576000600360006006548152602001908152602001600020600201546002029050600060036000600654815260200190815260200160002060090160026101000a81548160ff0219169083151502179055506000600360006006548152602001908152602001600020600201819055503373ffffffffffffffffffffffffffffffffffffffff166108fc829081150290604051600060405180830381858888f19350505050158015611f2a573d6000803e3d6000fd5b507f65a344e74fa5419fb748a8ec0e75c129c5366b1763e07d0369f007f1134a8a3033600283604051808473ffffffffffffffffffffffffffffffffffffffff1673ffffffffffffffffffffffffffffffffffffffff168152602001836004811115611f9257fe5b60ff168152602001828152602001935050505060405180910390a1505b5b506001600281905550565b611fc361306a565b73ffffffffffffffffffffffffffffffffffffffff16611fe1612414565b73ffffffffffffffffffffffffffffffffffffffff161461206a576040517f08c379a00000000000000000000000000000000000000000000000000000000081526004018080602001828103825260208152602001807f4f776e61626c653a2063616c6c6572206973206e6f7420746865206f776e657281525060200191505060405180910390fd5b600073ffffffffffffffffffffffffffffffffffffffff16600160009054906101000a900473ffffffffffffffffffffffffffffffffffffffff1673ffffffffffffffffffffffffffffffffffffffff167f8be0079c531659141344cd1fd0a4f28419497f9722a3daafe3b4186f6b6457e060405160405180910390a36000600160006101000a81548173ffffffffffffffffffffffffffffffffffffffff021916908373ffffffffffffffffffffffffffffffffffffffff160217905550565b61213361306a565b73ffffffffffffffffffffffffffffffffffffffff16612151612414565b73ffffffffffffffffffffffffffffffffffffffff16146121da576040517f08c379a00000000000000000000000000000000000000000000000000000000081526004018080602001828103825260208152602001807f4f776e61626c653a2063616c6c6572206973206e6f7420746865206f776e657281525060200191505060405180910390fd5b7f000000000000000000000000000000000000000000000000000000000000000073ffffffffffffffffffffffffffffffffffffffff1663a9059cbb61221e612414565b836040518363ffffffff1660e01b8152600401808373ffffffffffffffffffffffffffffffffffffffff1673ffffffffffffffffffffffffffffffffffffffff16815260200182815260200192505050602060405180830381600087803b15801561228857600080fd5b505af115801561229c573d6000803e3d6000fd5b505050506040513d60208110156122b257600080fd5b8101908080519060200190929190505050612335576040517f08c379a00000000000000000000000000000000000000000000000000000000081526004018080602001828103825260128152602001807f556e61626c6520746f207472616e73666572000000000000000000000000000081525060200191505060405180910390fd5b50565b600061234261306a565b73ffffffffffffffffffffffffffffffffffffffff16612360612414565b73ffffffffffffffffffffffffffffffffffffffff16146123e9576040517f08c379a00000000000000000000000000000000000000000000000000000000081526004018080602001828103825260208152602001807f4f776e61626c653a2063616c6c6572206973206e6f7420746865206f776e657281525060200191505060405180910390fd5b60036000600654815260200190815260200160002060090160009054906101000a900460ff16905090565b6000600160009054906101000a900473ffffffffffffffffffffffffffffffffffffffff16905090565b600061244861306a565b73ffffffffffffffffffffffffffffffffffffffff16612466612414565b73ffffffffffffffffffffffffffffffffffffffff16146124ef576040517f08c379a00000000000000000000000000000000000000000000000000000000081526004018080602001828103825260208152602001807f4f776e61626c653a2063616c6c6572206973206e6f7420746865206f776e657281525060200191505060405180910390fd5b60036000600654815260200190815260200160002060090160029054906101000a900460ff16156125235760029050612528565b600490505b90565b346009548110156125a4576040517f08c379a000000000000000000000000000000000000000000000000000000000815260040180806020018281038252601b8152602001807f4d696e696d756d20736964652062657420697320746f6f206c6f77000000000081525060200191505060405180910390fd5b6125ac61306a565b73ffffffffffffffffffffffffffffffffffffffff166125ca612414565b73ffffffffffffffffffffffffffffffffffffffff1614612653576040517f08c379a00000000000000000000000000000000000000000000000000000000081526004018080602001828103825260208152602001807f4f776e61626c653a2063616c6c6572206973206e6f7420746865206f776e657281525060200191505060405180910390fd5b60006003600060065481526020019081526020016000206006015414612854576002600481111561268057fe5b83600481111561268c57fe5b1480156126bc575060036000600654815260200190815260200160002060090160029054906101000a900460ff16155b1561271057600160036000600654815260200190815260200160002060090160026101000a81548160ff02191690831515021790555034600360006006548152602001908152602001600020600201819055505b6003600481111561271d57fe5b83600481111561272957fe5b148015612759575060036000600654815260200190815260200160002060090160039054906101000a900460ff16155b156127ca57600160036000600654815260200190815260200160002060090160036101000a81548160ff021916908315150217905550816003600060065481526020019081526020016000206007018190555034600360006006548152602001908152602001600020600301819055505b7f229cce111dd1b521f83ebc996e2c5af68d7d461d8b8279506333cf2f2ebbf90833843485604051808573ffffffffffffffffffffffffffffffffffffffff1673ffffffffffffffffffffffffffffffffffffffff16815260200184600481111561283157fe5b60ff16815260200183815260200182815260200194505050505060405180910390a15b505050565b7f000000000000000000000000000000000000000000000000000000000000000073ffffffffffffffffffffffffffffffffffffffff163373ffffffffffffffffffffffffffffffffffffffff161461291a576040517f08c379a000000000000000000000000000000000000000000000000000000000815260040180806020018281038252601f8152602001807f4f6e6c7920565246436f6f7264696e61746f722063616e2066756c66696c6c0081525060200191505060405180910390fd5b6129248282613227565b5050565b60085481565b60065481565b60016006600082825401925050819055507fc346a1f69c4455ab840c5e72fa8f5525af42e2d93fd102449bc88feb6c2b9fe03360036000600160065403815260200190815260200160002060000160009054906101000a900460ff16604051808373ffffffffffffffffffffffffffffffffffffffff1673ffffffffffffffffffffffffffffffffffffffff1681526020018260048111156129d257fe5b60ff1681526020019250505060405180910390a1565b60006129f261306a565b73ffffffffffffffffffffffffffffffffffffffff16612a10612414565b73ffffffffffffffffffffffffffffffffffffffff1614612a99576040517f08c379a00000000000000000000000000000000000000000000000000000000081526004018080602001828103825260208152602001807f4f776e61626c653a2063616c6c6572206973206e6f7420746865206f776e657281525060200191505060405180910390fd5b60036000600654815260200190815260200160002060090160039054906101000a900460ff1615612acd5760039050612ad2565b600490505b90565b60006001151560036000600654815260200190815260200160002060090160009054906101000a900460ff16151514612b76576040517f08c379a00000000000000000000000000000000000000000000000000000000081526004018080602001828103825260198152602001807f526f6c6c206e6565647320746f20626520636865636b6564210000000000000081525060200191505060405180910390fd5b612b846004546005546133bb565b90507fe5f5b44d72d4143c278eb745c4acc0695c4a5bc616be5beecf46abe29661780e816040518082815260200191505060405180910390a190565b34600854811015612c39576040517f08c379a00000000000000000000000000000000000000000000000000000000081526004018080602001828103825260168152602001807f4d696e696d756d2062657420697320746f6f206c6f770000000000000000000081525060200191505060405180910390fd5b60036000600654815260200190815260200160002060090160019054906101000a900460ff16612e7157604051806101a00160405280836004811115612c7b57fe5b8152602001348152602001600081526020016000815260200160008152602001600081526020016000815260200160008152602001600081526020016001151581526020016001151581526020016000151581526020016000151581525060036000600654815260200190815260200160002060008201518160000160006101000a81548160ff02191690836004811115612d1257fe5b02179055506020820151816001015560408201518160020155606082015181600301556080820151816004015560a0820151816005015560c0820151816006015560e0820151816007015561010082015181600801556101208201518160090160006101000a81548160ff0219169083151502179055506101408201518160090160016101000a81548160ff0219169083151502179055506101608201518160090160026101000a81548160ff0219169083151502179055506101808201518160090160036101000a81548160ff0219169083151502179055509050507f9f6b4cced64244a64465098f682029975b1614400b96bc6bd12c668083719166338334604051808473ffffffffffffffffffffffffffffffffffffffff1673ffffffffffffffffffffffffffffffffffffffff168152602001836004811115612e5557fe5b60ff168152602001828152602001935050505060405180910390a15b5050565b612e7d61306a565b73ffffffffffffffffffffffffffffffffffffffff16612e9b612414565b73ffffffffffffffffffffffffffffffffffffffff1614612f24576040517f08c379a00000000000000000000000000000000000000000000000000000000081526004018080602001828103825260208152602001807f4f776e61626c653a2063616c6c6572206973206e6f7420746865206f776e657281525060200191505060405180910390fd5b600073ffffffffffffffffffffffffffffffffffffffff168173ffffffffffffffffffffffffffffffffffffffff161415612faa576040517f08c379a00000000000000000000000000000000000000000000000000000000081526004018080602001828103825260268152602001806137036026913960400191505060405180910390fd5b8073ffffffffffffffffffffffffffffffffffffffff16600160009054906101000a900473ffffffffffffffffffffffffffffffffffffffff1673ffffffffffffffffffffffffffffffffffffffff167f8be0079c531659141344cd1fd0a4f28419497f9722a3daafe3b4186f6b6457e060405160405180910390a380600160006101000a81548173ffffffffffffffffffffffffffffffffffffffff021916908373ffffffffffffffffffffffffffffffffffffffff16021790555050565b600033905090565b6002805414156130ea576040517f08c379a000000000000000000000000000000000000000000000000000000000815260040180806020018281038252601f8152602001807f5265656e7472616e637947756172643a207265656e7472616e742063616c6c0081525060200191505060405180910390fd5b600280819055506001600660008282540192505081905550600060036000600160065403815260200190815260200160002060010154600202905061312d612414565b73ffffffffffffffffffffffffffffffffffffffff166108fc829081150290604051600060405180830381858888f19350505050158015613172573d6000803e3d6000fd5b507ff81695af4909e3581b736cb72b4976fcf5046b35ae7e8f1b3ba4b3e4200755753360036000600160065403815260200190815260200160002060000160009054906101000a900460ff1683604051808473ffffffffffffffffffffffffffffffffffffffff1673ffffffffffffffffffffffffffffffffffffffff16815260200183600481111561320157fe5b60ff168152602001828152602001935050505060405180910390a1506001600281905550565b60016003600060065481526020019081526020016000206008016000828254019250508190555060026007548161325a57fe5b066007819055506000600754141561329b5760016006828161327857fe5b0601600360006006548152602001908152602001600020600401819055506132c6565b6001600682816132a757fe5b0601600360006006548152602001908152602001600020600501819055505b600160076000828254019250508190555060026003600060065481526020019081526020016000206008015414156133b7577fb05df7d2c632e8d8f904242aa3e93544c5d29d9f9462756db053511ad4d22afb6003600060065481526020019081526020016000206004015460036000600654815260200190815260200160002060050154604051808381526020018281526020019250505060405180910390a1600060036000600654815260200190815260200160002060080181905550600060036000600654815260200190815260200160002060090160006101000a81548160ff0219169083151502179055505b5050565b60007f000000000000000000000000000000000000000000000000000000000000000073ffffffffffffffffffffffffffffffffffffffff16634000aea07f00000000000000000000000000000000000000000000000000000000000000008486600060405160200180838152602001828152602001925050506040516020818303038152906040526040518463ffffffff1660e01b8152600401808473ffffffffffffffffffffffffffffffffffffffff1673ffffffffffffffffffffffffffffffffffffffff16815260200183815260200180602001828103825283818151815260200191508051906020019080838360005b838110156134cb5780820151818401526020810190506134b0565b50505050905090810190601f1680156134f85780820380516001836020036101000a031916815260200191505b50945050505050602060405180830381600087803b15801561351957600080fd5b505af115801561352d573d6000803e3d6000fd5b505050506040513d602081101561354357600080fd5b810190808051906020019092919050505050600061357684600030600080898152602001908152602001600020546135c7565b905061359e60016000808781526020019081526020016000205461364190919063ffffffff16565b600080868152602001908152602001600020819055506135be84826136c9565b91505092915050565b600084848484604051602001808581526020018481526020018373ffffffffffffffffffffffffffffffffffffffff1673ffffffffffffffffffffffffffffffffffffffff1681526020018281526020019450505050506040516020818303038152906040528051906020012060001c9050949350505050565b6000808284019050838110156136bf576040517f08c379a000000000000000000000000000000000000000000000000000000000815260040180806020018281038252601b8152602001807f536166654d6174683a206164646974696f6e206f766572666c6f77000000000081525060200191505060405180910390fd5b8091505092915050565b6000828260405160200180838152602001828152602001925050506040516020818303038152906040528051906020012090509291505056fe4f776e61626c653a206e6577206f776e657220697320746865207a65726f2061646472657373a2646970667358221220d5b0126acacdccde733820e47d41c8a02db7f906e43401842c90dcd979b2e08a64736f6c63430006060033",
  "immutableReferences": {
    "76": [
      {
        "length": 32,
        "start": 1966
      },
      {
        "length": 32,
        "start": 8668
      },
      {
        "length": 32,
        "start": 13247
      }
    ],
    "78": [
      {
        "length": 32,
        "start": 10331
      },
      {
        "length": 32,
        "start": 13307
      }
    ]
  },
  "source": "// SPDX-License-Identifier: MIT\npragma solidity ^0.6.6;\n\nimport \"@chainlink/contracts/src/v0.6/VRFConsumerBase.sol\";\nimport \"@openzeppelin/contracts/access/Ownable.sol\";\nimport \"@openzeppelin/contracts/utils/ReentrancyGuard.sol\";\n\n/// @title A simulation of a single person craps game\n/// @author Calvin S. Lee\n/// @notice You can use this contract to simulate a craps game; betting with ether\n/// @dev Currently only deployed on the Kovan network\n\ncontract Gamble is VRFConsumerBase, Ownable, ReentrancyGuard{\n    mapping(uint256 => Round) public games;\n\n    enum BetTypes{PASS, DONT_PASS, SIX_EIGHT, HARD, NONE}\n    \n    event DiceResults(uint roll1, uint roll2);\n\n    event Winner(address roller, BetTypes bet, uint reward);\n\n    event HardBetWinner(address roller, BetTypes bet, uint reward, uint number);\n\n    event SixEightBetWinner(address roller, BetTypes bet, uint reward);\n\n    event Loser(address roller, BetTypes bet);\n\n    event Point(address roller, BetTypes bet, uint point);\n    \n    event BetPlaced(address bettor, BetTypes bet, uint amount);\n\n    event SideBetPlaced(address bettor, BetTypes sideBet, uint amount, uint number);\n\n    event RollEvaluated(address bettor, BetTypes bet, uint rollValue);\n\n    event RequestedRandomness(bytes32 requestId);\n\n    bytes32 internal keyHash;\n    uint256 internal fee;\n\n    /// @notice Counter for the current betting round\n    uint256 public current = 1; \n\n    /// @notice Index that alternates which die gets assigned a value\n    uint256 public rolledIndex = 0; \n\n    /// @notice Minimum bet is 1 Finney\n    uint256 public minBet = 1000000000000000; \n\n    /// @notice Minimum bet is 0.5 Finney\n    uint256 public minSideBet = 500000000000000;\n \n    \n    /// @notice Enforces that the minimum bet is 1 Finney (0.001 ETH)\n    /// @param ante The bet placed on the current round, reverts if too low \n    modifier atLeastMinBet(uint ante){\n        require(ante >= minBet, \"Minimum bet is too low\");\n        _;\n    }\n\n    modifier atLeastMinSideBet(uint sideAnte){\n        require(sideAnte >= minSideBet, \"Minimum side bet is too low\");\n        _;\n    }\n\n    struct Round {\n        BetTypes typeBet;\n        uint256 betAmount;\n        uint256 sixEightBet;\n        uint256 hardBet;\n        uint256 rollOne;\n        uint256 rollTwo;\n        uint256 point;\n        uint256 hardNum;\n        uint256 rollCounter;\n        bool rollEvaluated; \n        bool roundComplete;\n        bool sixEightBetOn;\n        bool hardBetOn;\n    }\n\n    /// @dev Constructor inherits VRFConsumerBase\n    /// @dev Network: Kovan\n    /// @dev VRF coordinator address: 0xdD3782915140c8f3b190B5D67eAc6dc5760C46E9\n    /// @dev LINK token address:                0xa36085F69e2889c224210F603D836748e7dC0088\n    /// @dev Key Hash: 0x6c3699283bda56ad74f6b855546325b68d482e983852a7a82979cc4807b641f4\n\n    /// @param _linkTokenAddress Initialize the contract with the appropriate link address for network\n    /// @param _vrfCoordinatorAddress Initialize contract with correct vrf coordinator (for random number)\n    constructor(address _linkTokenAddress, bytes32 _keyHash, \n    address _vrfCoordinatorAddress, uint256 _fee)\n        public\n        VRFConsumerBase(\n            _vrfCoordinatorAddress,\n            _linkTokenAddress)\n    {\n        keyHash = _keyHash;\n        fee = _fee;\n    }\n\n    \n    /// @notice Creates a betting round and maps it to games. Will only create a new round if the current round is finished.\n    /// @param typeBet The type of bet for the current round; Pass or No Pass\n    /// @dev Is a payable function and which the value is checked against the minimum bet to see if valid\n    function createGame (BetTypes typeBet) public payable atLeastMinBet(msg.value) {\n        if (!games[current].roundComplete) {\n            games[current] = Round(typeBet, msg.value, 0, 0, 0, 0, 0, 0, 0, true, true, false, false);\n            emit BetPlaced(msg.sender, typeBet, msg.value);\n        }\n    }\n\n\n    /// @notice Creates a side bet during rounds where a point has been established. For future implementations.\n    /// @param sideBet The type of side bet user wants to place.\n    /// @param number The number the user wants to place a hardways bet on. Will only be used if hardways bet is on.\n    /// @dev Is a payable function in which the value of transaction is checked against modifier atLeastMinSideBet\n    function placeSideBet(BetTypes sideBet, uint number) public payable atLeastMinSideBet(msg.value) onlyOwner {\n        /// @notice Can only place sideBet after point is established and no more than one of \n        /// each sidebet has been placed\n        if (games[current].point != 0) {\n            if (sideBet == BetTypes.SIX_EIGHT && !games[current].sixEightBetOn) {\n                games[current].sixEightBetOn = true;\n                games[current].sixEightBet = msg.value;\n            }\n            if (sideBet == BetTypes.HARD && !games[current].hardBetOn) {\n                games[current].hardBetOn = true;\n                games[current].hardNum = number;\n                games[current].hardBet = msg.value;\n            }\n            emit SideBetPlaced(msg.sender, sideBet, msg.value, number);\n        }\n    }\n\n\n    /// @notice Requests randomness from a user-provided seed\n    function getRandomNumber() public returns (bytes32 requestId) {\n        require(games[current].rollEvaluated == true, \"Roll needs to be checked!\");\n        requestId = requestRandomness(keyHash, fee);\n        emit RequestedRandomness(requestId);\n    }\n\n    \n    /// @notice Checks values against the Bet type and determines a winner, loser or re-roll according to craps rules\n    function evaluateRoll() public {\n        require(games[current].rollOne != 0 || games[current].rollTwo != 0, \"Invalid Roll!\");\n        require(games[current].rollEvaluated == false, \"Roll is already checked!\");\n        \n        uint sum = games[current].rollOne + games[current].rollTwo;\n        \n        if (games[current].point == 0 && !(sum == 2 || sum == 3 || sum == 7 || sum == 11 || sum == 12)) {\n            games[current].point = sum;\n            emit Point(owner(), games[current].typeBet, games[current].point);\n        } else {\n        \n            if (games[current].typeBet == BetTypes.PASS && games[current].point == 0) {\n               if (sum == 7 || sum == 11){\n                    payOut();\n               } \n               if (sum == 2 || sum == 3 || sum == 12) {\n                   emit Loser(msg.sender, games[current].typeBet);\n                   current += 1;\n               }\n    \n           } else if (games[current].typeBet == BetTypes.DONT_PASS && games[current].point == 0) {\n               if (sum == 2 || sum == 3 || sum == 12) {\n                    payOut();\n               } \n               if (sum == 7 || sum == 11){\n                    emit Loser(msg.sender, games[current].typeBet);\n                    current += 1;\n               }\n               \n           } else if (games[current].typeBet == BetTypes.PASS && games[current].point != 0) {\n               if (sum == 7) {\n                   emit Loser(msg.sender, games[current].typeBet);\n                   current += 1;\n               }\n               if (sum == games[current].point) {\n                   payOut();  \n               }\n               \n           } else if (games[current].typeBet == BetTypes.DONT_PASS && games[current].point != 0) {\n               if (sum == 7) {\n                   payOut();\n               }\n               if (sum == games[current].point) {\n                   emit Loser(msg.sender, games[current].typeBet);\n                   current += 1;\n               }  \n            }\n        }\n        /// @dev Ensures that you must evaluate the roll before rolling again. (No do-overs)\n        games[current].rollEvaluated = true;\n        emit RollEvaluated(msg.sender, games[current].typeBet, sum);\n    }\n\n    /// @dev Evaluation of any side bets prior to evaluating the main bet. For future implementation.\n    function sideBetEvaluation() public  nonReentrant {\n        require(games[current].sixEightBetOn || games[current].hardBetOn, \"No side bets placed!\");\n        \n        uint sum = games[current].rollOne + games[current].rollTwo;\n        \n        /// @dev Evaluate Hard Bet\n        if (games[current].hardBetOn) {\n            if (sum == 4) {\n                if (games[current].rollOne == 2 && games[current].rollTwo == 2) {\n                    uint reward = 8 * games[current].hardBet;\n                    games[current].hardBetOn = false;\n                    games[current].hardBet = 0;\n                    payable(msg.sender).transfer(reward);\n                    emit HardBetWinner(msg.sender, BetTypes.HARD, reward, sum);\n                }\n            }\n            if (sum == 10) {\n                if (games[current].rollOne == 5 && games[current].rollTwo == 5) {\n                    uint reward = 8 * games[current].hardBet;\n                    games[current].hardBetOn = false;\n                    games[current].hardBet = 0;\n                    payable(msg.sender).transfer(reward);\n                    emit HardBetWinner(msg.sender, BetTypes.HARD, reward, sum);\n                }\n            }\n            if (sum == 6) {\n                if (games[current].rollOne == 3 && games[current].rollTwo == 3) {\n                    uint reward = 10 * games[current].hardBet;\n                    games[current].hardBetOn = false;\n                    games[current].hardBet = 0;\n                    payable(msg.sender).transfer(reward);\n                    emit HardBetWinner(msg.sender, BetTypes.HARD, reward, sum);\n                }\n            }\n            if (sum == 8) {\n                if (games[current].rollOne == 4 && games[current].rollTwo == 4) {\n                    uint reward = 10 * games[current].hardBet;\n                    games[current].hardBetOn = false;\n                    games[current].hardBet = 0;\n                    payable(msg.sender).transfer(reward);\n                    emit HardBetWinner(msg.sender, BetTypes.HARD, reward, sum);\n                }\n            }\n        }\n\n        if (games[current].sixEightBetOn) {\n            if (sum == 6 || sum == 8) {\n                uint reward = 2 * games[current].sixEightBet;\n                games[current].sixEightBetOn = false;\n                games[current].sixEightBet = 0;\n                payable(msg.sender).transfer(reward);\n                emit SixEightBetWinner(msg.sender, BetTypes.SIX_EIGHT, reward); \n            }\n        }\n    }\n\n    function quitGame() public {\n        current += 1;\n        emit Loser(msg.sender, games[current - 1].typeBet);\n    }\n    \n\n    function withdrawEther(uint256 amount) external payable onlyOwner {\n        require(address(this).balance >= amount, \"Insufficient balance\");\n        payable(owner()).transfer(amount);\n    }\n\n    function withdrawLink(uint256 amount) external onlyOwner {\n        require(LINK.transfer(owner(), amount), \"Unable to transfer\");\n    }\n\n    /// @notice Pay out method, awarded if roller wins.\n    /// @dev Applied nonReentrant modifier to provide protection against recursive reentrancy attack\n    function payOut() internal nonReentrant  {\n        current += 1;\n        uint reward = 2 * games[current - 1].betAmount;\n        payable(owner()).transfer(reward);\n        emit Winner(msg.sender, games[current - 1].typeBet, reward);  \n    }\n\n    /** \n     * Requests the address of the Chainlink Token on this network \n     */\n    function getChainlinkToken() public view returns (address) {\n        return address(LINK);\n    }\n\n    fallback() external payable {}\n\n    receive() external payable {}\n\n    /// @notice Assigns a random number 1-6 to the roll values of the current round\n    /// @dev Callback function used by VRF Coordinator\n    /// @param requestId The address to recieve the random number data.\n    /// @param randomness The random number returned.\n    function fulfillRandomness (bytes32 requestId, uint256 randomness) internal override {\n        games[current].rollCounter += 1;\n        rolledIndex = rolledIndex % 2;\n        if (rolledIndex == 0) {\n            games[current].rollOne = (randomness % 6) + 1;\n        } else {\n            games[current].rollTwo = (randomness % 6) + 1;\n        }\n        rolledIndex += 1;\n        \n        if (games[current].rollCounter == 2){\n            // Emits the roll of the two dice.\n            emit DiceResults(games[current].rollOne, games[current].rollTwo);\n            games[current].rollCounter = 0;\n            games[current].rollEvaluated = false;\n        }\n    }\n    \n    /// @dev The following getter functions mainly used for testing purposes\n    /// @return Returns the type of bet for the current round\n    function getCurrentBetType() public view onlyOwner returns(BetTypes) {\n        return games[current].typeBet;\n    }\n\n    function confirmSixEightBet() public view onlyOwner returns(BetTypes) {\n        if (games[current].sixEightBetOn) {\n            return BetTypes.SIX_EIGHT;\n        }\n        return BetTypes.NONE;\n    }   \n\n    function confirmHardBet() public view onlyOwner returns(BetTypes) {\n        if (games[current].hardBetOn) {\n            return BetTypes.HARD;\n        }\n        return BetTypes.NONE;\n    }\n\n    function getHardNum() public view onlyOwner returns (uint) {\n        return games[current].hardNum;\n    }\n\n    function isRollEvaluated() public view onlyOwner returns(bool) {\n        return games[current].rollEvaluated;\n    }\n\n    function isRoundOver() public view onlyOwner returns(bool) {\n        return games[current].roundComplete;\n    }\n\n    /// @dev Getter function mainly used for testing purposes\n    /// @param dieNum The die whose face value is being requested\n    /// @return Returns the value of either die 1 or die 2\n    function getCurrentRollValues (uint dieNum) public onlyOwner  view returns(uint) {\n        require(dieNum == 1 || dieNum == 2, \"Invalid die number\");\n        if (dieNum == 1) {\n            return games[current].rollOne;\n        } else {\n            return games[current].rollTwo;\n        }\n        \n    }\n}\n",
  "sourcePath": "/home/sensor47/Chainlink/contracts/Gamble.sol",
  "compiler": {
    "name": "solc",
    "version": "0.6.6+commit.6c089d02.Emscripten.clang"
  },
  "schemaVersion": "3.4.3",
  "updatedAt": "2022-01-11T06:46:49.052Z",
  "networkType": "ethereum",
  "devdoc": {
    "author": "Calvin S. Lee",
    "details": "Currently only deployed on the Kovan network",
    "methods": {
      "constructor": {
        "details": "Constructor inherits VRFConsumerBaseNetwork: KovanVRF coordinator address: 0xdD3782915140c8f3b190B5D67eAc6dc5760C46E9LINK token address:                0xa36085F69e2889c224210F603D836748e7dC0088Key Hash: 0x6c3699283bda56ad74f6b855546325b68d482e983852a7a82979cc4807b641f4",
        "params": {
          "_linkTokenAddress": "Initialize the contract with the appropriate link address for network",
          "_vrfCoordinatorAddress": "Initialize contract with correct vrf coordinator (for random number)"
        }
      },
      "createGame(uint8)": {
        "details": "Is a payable function and which the value is checked against the minimum bet to see if valid",
        "params": {
          "typeBet": "The type of bet for the current round; Pass or No Pass"
        }
      },
      "getCurrentBetType()": {
        "details": "The following getter functions mainly used for testing purposes",
        "returns": {
          "_0": "Returns the type of bet for the current round"
        }
      },
      "getCurrentRollValues(uint256)": {
        "details": "Getter function mainly used for testing purposes",
        "params": {
          "dieNum": "The die whose face value is being requested"
        },
        "returns": {
          "_0": "Returns the value of either die 1 or die 2"
        }
      },
      "owner()": {
        "details": "Returns the address of the current owner."
      },
      "placeSideBet(uint8,uint256)": {
        "details": "Is a payable function in which the value of transaction is checked against modifier atLeastMinSideBet",
        "params": {
          "number": "The number the user wants to place a hardways bet on. Will only be used if hardways bet is on.",
          "sideBet": "The type of side bet user wants to place."
        }
      },
      "renounceOwnership()": {
        "details": "Leaves the contract without owner. It will not be possible to call `onlyOwner` functions anymore. Can only be called by the current owner.     * NOTE: Renouncing ownership will leave the contract without an owner, thereby removing any functionality that is only available to the owner."
      },
      "sideBetEvaluation()": {
        "details": "Evaluation of any side bets prior to evaluating the main bet. For future implementation."
      },
      "transferOwnership(address)": {
        "details": "Transfers ownership of the contract to a new account (`newOwner`). Can only be called by the current owner."
      }
    },
    "title": "A simulation of a single person craps game"
  },
  "userdoc": {
    "methods": {
      "createGame(uint8)": {
        "notice": "Creates a betting round and maps it to games. Will only create a new round if the current round is finished."
      },
      "evaluateRoll()": {
        "notice": "Checks values against the Bet type and determines a winner, loser or re-roll according to craps rules"
      },
      "getChainlinkToken()": {
        "notice": "Requests the address of the Chainlink Token on this network "
      },
      "getRandomNumber()": {
        "notice": "Requests randomness from a user-provided seed"
      },
      "placeSideBet(uint8,uint256)": {
        "notice": "Creates a side bet during rounds where a point has been established. For future implementations."
      }
    },
    "notice": "You can use this contract to simulate a craps game; betting with ether"
  }
}